{
  "_format": "hh-sol-artifact-1",
  "contractName": "LataSwap_M",
  "sourceName": "contracts/LataSwap_M.sol",
  "abi": [
    {
      "inputs": [
        {
          "internalType": "contract ISwapRouter",
          "name": "_swapRouter",
          "type": "address"
        },
        {
          "internalType": "uint256",
          "name": "_initialdeposit",
          "type": "uint256"
        }
      ],
      "stateMutability": "nonpayable",
      "type": "constructor"
    },
    {
      "inputs": [],
      "name": "LataSwap__NotEnoughBalance",
      "type": "error"
    },
    {
      "anonymous": false,
      "inputs": [
        {
          "indexed": true,
          "internalType": "address",
          "name": "investors",
          "type": "address"
        },
        {
          "indexed": true,
          "internalType": "uint256",
          "name": "amountInUSDC",
          "type": "uint256"
        }
      ],
      "name": "DepositUser",
      "type": "event"
    },
    {
      "anonymous": false,
      "inputs": [
        {
          "indexed": true,
          "internalType": "address",
          "name": "investors",
          "type": "address"
        },
        {
          "indexed": true,
          "internalType": "uint256",
          "name": "amountInLataToken",
          "type": "uint256"
        }
      ],
      "name": "WithdrawUser",
      "type": "event"
    },
    {
      "inputs": [],
      "name": "UNI",
      "outputs": [
        {
          "internalType": "address",
          "name": "",
          "type": "address"
        }
      ],
      "stateMutability": "view",
      "type": "function"
    },
    {
      "inputs": [],
      "name": "USDC",
      "outputs": [
        {
          "internalType": "address",
          "name": "",
          "type": "address"
        }
      ],
      "stateMutability": "view",
      "type": "function"
    },
    {
      "inputs": [],
      "name": "WBTC",
      "outputs": [
        {
          "internalType": "address",
          "name": "",
          "type": "address"
        }
      ],
      "stateMutability": "view",
      "type": "function"
    },
    {
      "inputs": [],
      "name": "WETH",
      "outputs": [
        {
          "internalType": "address",
          "name": "",
          "type": "address"
        }
      ],
      "stateMutability": "view",
      "type": "function"
    },
    {
      "inputs": [],
      "name": "WMATIC",
      "outputs": [
        {
          "internalType": "address",
          "name": "",
          "type": "address"
        }
      ],
      "stateMutability": "view",
      "type": "function"
    },
    {
      "inputs": [
        {
          "internalType": "address",
          "name": "assetToken",
          "type": "address"
        }
      ],
      "name": "_balanceOfAsset",
      "outputs": [
        {
          "internalType": "uint256",
          "name": "",
          "type": "uint256"
        }
      ],
      "stateMutability": "view",
      "type": "function"
    },
    {
      "inputs": [],
      "name": "_calTotalValueOfPoolinUSDC",
      "outputs": [
        {
          "internalType": "uint256",
          "name": "value",
          "type": "uint256"
        }
      ],
      "stateMutability": "view",
      "type": "function"
    },
    {
      "inputs": [
        {
          "internalType": "uint256",
          "name": "UNIAmount",
          "type": "uint256"
        },
        {
          "internalType": "uint256",
          "name": "WMATICAmount",
          "type": "uint256"
        },
        {
          "internalType": "uint256",
          "name": "WBTCAmount",
          "type": "uint256"
        },
        {
          "internalType": "uint256",
          "name": "WETHAmount",
          "type": "uint256"
        }
      ],
      "name": "_calUSDCValueAfterSwap",
      "outputs": [
        {
          "internalType": "uint256",
          "name": "valueinUSDC",
          "type": "uint256"
        }
      ],
      "stateMutability": "view",
      "type": "function"
    },
    {
      "inputs": [
        {
          "internalType": "uint256",
          "name": "amountInTotalAfterSwap",
          "type": "uint256"
        }
      ],
      "name": "_calUserTokenMint",
      "outputs": [
        {
          "internalType": "uint256",
          "name": "tokenAmount",
          "type": "uint256"
        }
      ],
      "stateMutability": "view",
      "type": "function"
    },
    {
      "inputs": [
        {
          "internalType": "address",
          "name": "priceFeed",
          "type": "address"
        }
      ],
      "name": "_getCurrentPriceofToken",
      "outputs": [
        {
          "internalType": "uint256",
          "name": "",
          "type": "uint256"
        }
      ],
      "stateMutability": "view",
      "type": "function"
    },
    {
      "inputs": [
        {
          "internalType": "uint256",
          "name": "amountInTotalAfterSwap",
          "type": "uint256"
        }
      ],
      "name": "_getExchangeRate",
      "outputs": [
        {
          "internalType": "uint256",
          "name": "",
          "type": "uint256"
        }
      ],
      "stateMutability": "view",
      "type": "function"
    },
    {
      "inputs": [
        {
          "internalType": "uint256",
          "name": "lataTokenAmount",
          "type": "uint256"
        }
      ],
      "name": "estimateRedeemAmountInUSDC",
      "outputs": [
        {
          "internalType": "uint256",
          "name": "AmountInUSDC",
          "type": "uint256"
        }
      ],
      "stateMutability": "view",
      "type": "function"
    },
    {
      "inputs": [],
      "name": "feeTier",
      "outputs": [
        {
          "internalType": "uint24",
          "name": "",
          "type": "uint24"
        }
      ],
      "stateMutability": "view",
      "type": "function"
    },
    {
      "inputs": [],
      "name": "getAllInvestors",
      "outputs": [
        {
          "internalType": "address[]",
          "name": "",
          "type": "address[]"
        }
      ],
      "stateMutability": "view",
      "type": "function"
    },
    {
      "inputs": [],
      "name": "getLataTokenAddress",
      "outputs": [
        {
          "internalType": "address",
          "name": "",
          "type": "address"
        }
      ],
      "stateMutability": "view",
      "type": "function"
    },
    {
      "inputs": [
        {
          "internalType": "address",
          "name": "user",
          "type": "address"
        }
      ],
      "name": "getUserBalanceOfLataToken",
      "outputs": [
        {
          "internalType": "uint256",
          "name": "userLataBalance",
          "type": "uint256"
        }
      ],
      "stateMutability": "view",
      "type": "function"
    },
    {
      "inputs": [
        {
          "internalType": "address",
          "name": "user",
          "type": "address"
        }
      ],
      "name": "getUserUSDCBalance",
      "outputs": [
        {
          "internalType": "uint256",
          "name": "",
          "type": "uint256"
        }
      ],
      "stateMutability": "view",
      "type": "function"
    },
    {
      "inputs": [],
      "name": "lataSwapBalanceOfTokens",
      "outputs": [
        {
          "internalType": "uint256",
          "name": "UNI",
          "type": "uint256"
        },
        {
          "internalType": "uint256",
          "name": "WMATIC",
          "type": "uint256"
        },
        {
          "internalType": "uint256",
          "name": "WBTC",
          "type": "uint256"
        },
        {
          "internalType": "uint256",
          "name": "WETH",
          "type": "uint256"
        }
      ],
      "stateMutability": "view",
      "type": "function"
    },
    {
      "inputs": [],
      "name": "lataToken",
      "outputs": [
        {
          "internalType": "contract LataToken",
          "name": "",
          "type": "address"
        }
      ],
      "stateMutability": "view",
      "type": "function"
    },
    {
      "inputs": [],
      "name": "totalUsers",
      "outputs": [
        {
          "internalType": "uint256",
          "name": "length",
          "type": "uint256"
        }
      ],
      "stateMutability": "view",
      "type": "function"
    },
    {
      "inputs": [
        {
          "internalType": "uint256",
          "name": "amountInTotal",
          "type": "uint256"
        }
      ],
      "name": "userDeposit",
      "outputs": [],
      "stateMutability": "nonpayable",
      "type": "function"
    },
    {
      "inputs": [
        {
          "internalType": "address",
          "name": "user",
          "type": "address"
        }
      ],
      "name": "userTotalBalanceInUSDC",
      "outputs": [
        {
          "internalType": "uint256",
          "name": "AmountInUSDC",
          "type": "uint256"
        }
      ],
      "stateMutability": "view",
      "type": "function"
    },
    {
      "inputs": [
        {
          "internalType": "uint256",
          "name": "amountInLataToken",
          "type": "uint256"
        }
      ],
      "name": "userWithdraw",
      "outputs": [],
      "stateMutability": "nonpayable",
      "type": "function"
    },
    {
      "inputs": [],
      "name": "withdrawAllEther",
      "outputs": [],
      "stateMutability": "payable",
      "type": "function"
    },
    {
      "inputs": [],
      "name": "withdrawAllTokens",
      "outputs": [],
      "stateMutability": "payable",
      "type": "function"
    },
    {
      "stateMutability": "payable",
      "type": "receive"
    }
  ],
  "bytecode": "0x60e06040526000600860006101000a81548160ff0219169083151502179055503480156200002c57600080fd5b50604051620060c7380380620060c78339818101604052810190620000529190620002ef565b60016000819055508173ffffffffffffffffffffffffffffffffffffffff1660808173ffffffffffffffffffffffffffffffffffffffff16815250506040516200009c906200021a565b604051809103906000f080158015620000b9573d6000803e3d6000fd5b5073ffffffffffffffffffffffffffffffffffffffff1660a08173ffffffffffffffffffffffffffffffffffffffff1681525050604051620000fb9062000228565b604051809103906000f08015801562000118573d6000803e3d6000fd5b5073ffffffffffffffffffffffffffffffffffffffff1660c08173ffffffffffffffffffffffffffffffffffffffff168152505060a05173ffffffffffffffffffffffffffffffffffffffff166340c10f193364e8d4a51000846200017e919062000365565b6040518363ffffffff1660e01b81526004016200019d929190620003d2565b600060405180830381600087803b158015620001b857600080fd5b505af1158015620001cd573d6000803e3d6000fd5b5050505033600660006101000a81548173ffffffffffffffffffffffffffffffffffffffff021916908373ffffffffffffffffffffffffffffffffffffffff1602179055505050620003ff565b612066806200393d83390190565b61072480620059a383390190565b600080fd5b600073ffffffffffffffffffffffffffffffffffffffff82169050919050565b600062000268826200023b565b9050919050565b60006200027c826200025b565b9050919050565b6200028e816200026f565b81146200029a57600080fd5b50565b600081519050620002ae8162000283565b92915050565b6000819050919050565b620002c981620002b4565b8114620002d557600080fd5b50565b600081519050620002e981620002be565b92915050565b6000806040838503121562000309576200030862000236565b5b600062000319858286016200029d565b92505060206200032c85828601620002d8565b9150509250929050565b7f4e487b7100000000000000000000000000000000000000000000000000000000600052601160045260246000fd5b60006200037282620002b4565b91506200037f83620002b4565b92508282026200038f81620002b4565b91508282048414831517620003a957620003a862000336565b5b5092915050565b620003bb816200025b565b82525050565b620003cc81620002b4565b82525050565b6000604082019050620003e96000830185620003b0565b620003f86020830184620003c1565b9392505050565b60805160a05160c0516134ba620004836000396000611d3d01526000818161060c01528181610634015281816107e6015281816114b00152818161195a01528181611dea0152612230015260008181611624015281816116d70152818161178a0152818161183d015281816120bd0152818161249f015261290301526134ba6000f3fe60806040526004361061016a5760003560e01c8063745b94c7116100d1578063c2d2d4271161008a578063d0a2f2c411610064578063d0a2f2c41461053a578063eb47ea6614610565578063ed3b8787146105a2578063f868e766146105df57610171565b8063c2d2d427146104a4578063ce24f425146104d2578063cec723481461050f57610171565b8063745b94c71461037e57806388767bec146103bb57806389a30271146103f8578063ad5c464814610423578063b185e62a1461044e578063bff1f9e11461047957610171565b80633b9056bf116101235780633b9056bf1461026c578063444fcf9d146102955780634d95cad9146102d25780634dede3de146102fd578063541bcb761461032857806372f5d98a1461035357610171565b806308622b9b146101765780631a0546ca146101a15780631cf1d8bc146101de57806327b29edc1461021b578063280da6fa1461025857806331c911171461026257610171565b3661017157005b600080fd5b34801561018257600080fd5b5061018b610608565b60405161019891906129e9565b60405180910390f35b3480156101ad57600080fd5b506101c860048036038101906101c39190612a35565b610630565b6040516101d59190612a7b565b60405180910390f35b3480156101ea57600080fd5b5061020560048036038101906102009190612ac2565b6106d3565b6040516102129190612a7b565b60405180910390f35b34801561022757600080fd5b50610242600480360381019061023d9190612b29565b6107cf565b60405161024f9190612a7b565b60405180910390f35b610260610884565b005b61026a611316565b005b34801561027857600080fd5b50610293600480360381019061028e9190612b29565b611458565b005b3480156102a157600080fd5b506102bc60048036038101906102b79190612a35565b611ac2565b6040516102c99190612a7b565b60405180910390f35b3480156102de57600080fd5b506102e7611aed565b6040516102f491906129e9565b60405180910390f35b34801561030957600080fd5b50610312611b05565b60405161031f91906129e9565b60405180910390f35b34801561033457600080fd5b5061033d611b1d565b60405161034a91906129e9565b60405180910390f35b34801561035f57600080fd5b50610368611b35565b6040516103759190612b74565b60405180910390f35b34801561038a57600080fd5b506103a560048036038101906103a09190612b29565b611b3b565b6040516103b29190612a7b565b60405180910390f35b3480156103c757600080fd5b506103e260048036038101906103dd9190612b29565b611b59565b6040516103ef9190612a7b565b60405180910390f35b34801561040457600080fd5b5061040d611b76565b60405161041a91906129e9565b60405180910390f35b34801561042f57600080fd5b50610438611b8e565b60405161044591906129e9565b60405180910390f35b34801561045a57600080fd5b50610463611ba6565b6040516104709190612a7b565b60405180910390f35b34801561048557600080fd5b5061048e611d0d565b60405161049b9190612a7b565b60405180910390f35b3480156104b057600080fd5b506104b9611d1a565b6040516104c99493929190612b8f565b60405180910390f35b3480156104de57600080fd5b506104f960048036038101906104f49190612a35565b611d38565b6040516105069190612a7b565b60405180910390f35b34801561051b57600080fd5b50610524611de8565b6040516105319190612c33565b60405180910390f35b34801561054657600080fd5b5061054f611e0c565b60405161055c9190612d0c565b60405180910390f35b34801561057157600080fd5b5061058c60048036038101906105879190612a35565b611e9a565b6040516105999190612a7b565b60405180910390f35b3480156105ae57600080fd5b506105c960048036038101906105c49190612a35565b611f31565b6040516105d69190612a7b565b60405180910390f35b3480156105eb57600080fd5b5061060660048036038101906106019190612b29565b611fb4565b005b60007f0000000000000000000000000000000000000000000000000000000000000000905090565b60007f000000000000000000000000000000000000000000000000000000000000000073ffffffffffffffffffffffffffffffffffffffff166370a08231836040518263ffffffff1660e01b815260040161068b91906129e9565b602060405180830381865afa1580156106a8573d6000803e3d6000fd5b505050506040513d601f19601f820116820180604052508101906106cc9190612d43565b9050919050565b60006106f273f9680d99d6c9589e2a93a78a04a279e509205945611d38565b826106fd9190612d9f565b61071a73de31f8bfbd8c84b5360cfacca3539b938dd78ae6611d38565b6402540be4008561072b9190612d9f565b6107359190612d9f565b61075273ab594600376ec9fd91f8e885dadf0ce036862de0611d38565b8661075d9190612d9f565b61077a73df0fb4e4f928d2dcb76f438575fdd8682386e13c611d38565b886107859190612d9f565b61078f9190612de1565b6107999190612de1565b6107a39190612de1565b9050670de0b6b3a76400006064826107bb9190612e44565b6107c59190612e44565b9050949350505050565b6000816107da611ba6565b6107e49190612e75565b7f000000000000000000000000000000000000000000000000000000000000000073ffffffffffffffffffffffffffffffffffffffff166318160ddd6040518163ffffffff1660e01b8152600401602060405180830381865afa15801561084f573d6000803e3d6000fd5b505050506040513d601f19601f820116820180604052508101906108739190612d43565b61087d9190612e44565b9050919050565b600660009054906101000a900473ffffffffffffffffffffffffffffffffffffffff1673ffffffffffffffffffffffffffffffffffffffff163373ffffffffffffffffffffffffffffffffffffffff1614610914576040517f08c379a000000000000000000000000000000000000000000000000000000000815260040161090b90612f06565b60405180910390fd5b73b33eaad8d922b1083446dc23f610c2567fb5180f73ffffffffffffffffffffffffffffffffffffffff1663095ea7b33373b33eaad8d922b1083446dc23f610c2567fb5180f73ffffffffffffffffffffffffffffffffffffffff166370a08231306040518263ffffffff1660e01b815260040161099291906129e9565b602060405180830381865afa1580156109af573d6000803e3d6000fd5b505050506040513d601f19601f820116820180604052508101906109d39190612d43565b6040518363ffffffff1660e01b81526004016109f0929190612f26565b6020604051808303816000875af1158015610a0f573d6000803e3d6000fd5b505050506040513d601f19601f82011682018060405250810190610a339190612f87565b610a72576040517f08c379a0000000000000000000000000000000000000000000000000000000008152600401610a6990613000565b60405180910390fd5b737ceb23fd6bc0add59e62ac25578270cff1b9f61973ffffffffffffffffffffffffffffffffffffffff1663095ea7b333737ceb23fd6bc0add59e62ac25578270cff1b9f61973ffffffffffffffffffffffffffffffffffffffff166370a08231306040518263ffffffff1660e01b8152600401610af091906129e9565b602060405180830381865afa158015610b0d573d6000803e3d6000fd5b505050506040513d601f19601f82011682018060405250810190610b319190612d43565b6040518363ffffffff1660e01b8152600401610b4e929190612f26565b6020604051808303816000875af1158015610b6d573d6000803e3d6000fd5b505050506040513d601f19601f82011682018060405250810190610b919190612f87565b610bd0576040517f08c379a0000000000000000000000000000000000000000000000000000000008152600401610bc790613000565b60405180910390fd5b731bfd67037b42cf73acf2047067bd4f2c47d9bfd673ffffffffffffffffffffffffffffffffffffffff1663095ea7b333731bfd67037b42cf73acf2047067bd4f2c47d9bfd673ffffffffffffffffffffffffffffffffffffffff166370a08231306040518263ffffffff1660e01b8152600401610c4e91906129e9565b602060405180830381865afa158015610c6b573d6000803e3d6000fd5b505050506040513d601f19601f82011682018060405250810190610c8f9190612d43565b6040518363ffffffff1660e01b8152600401610cac929190612f26565b6020604051808303816000875af1158015610ccb573d6000803e3d6000fd5b505050506040513d601f19601f82011682018060405250810190610cef9190612f87565b610d2e576040517f08c379a0000000000000000000000000000000000000000000000000000000008152600401610d2590613000565b60405180910390fd5b730d500b1d8e8ef31e21c99d1db9a6444d3adf127073ffffffffffffffffffffffffffffffffffffffff1663095ea7b333730d500b1d8e8ef31e21c99d1db9a6444d3adf127073ffffffffffffffffffffffffffffffffffffffff166370a08231306040518263ffffffff1660e01b8152600401610dac91906129e9565b602060405180830381865afa158015610dc9573d6000803e3d6000fd5b505050506040513d601f19601f82011682018060405250810190610ded9190612d43565b6040518363ffffffff1660e01b8152600401610e0a929190612f26565b6020604051808303816000875af1158015610e29573d6000803e3d6000fd5b505050506040513d601f19601f82011682018060405250810190610e4d9190612f87565b610e8c576040517f08c379a0000000000000000000000000000000000000000000000000000000008152600401610e8390613000565b60405180910390fd5b73b33eaad8d922b1083446dc23f610c2567fb5180f73ffffffffffffffffffffffffffffffffffffffff166323b872dd303373b33eaad8d922b1083446dc23f610c2567fb5180f73ffffffffffffffffffffffffffffffffffffffff166370a08231306040518263ffffffff1660e01b8152600401610f0b91906129e9565b602060405180830381865afa158015610f28573d6000803e3d6000fd5b505050506040513d601f19601f82011682018060405250810190610f4c9190612d43565b6040518463ffffffff1660e01b8152600401610f6a93929190613020565b6020604051808303816000875af1158015610f89573d6000803e3d6000fd5b505050506040513d601f19601f82011682018060405250810190610fad9190612f87565b50731bfd67037b42cf73acf2047067bd4f2c47d9bfd673ffffffffffffffffffffffffffffffffffffffff166323b872dd3033731bfd67037b42cf73acf2047067bd4f2c47d9bfd673ffffffffffffffffffffffffffffffffffffffff166370a08231306040518263ffffffff1660e01b815260040161102d91906129e9565b602060405180830381865afa15801561104a573d6000803e3d6000fd5b505050506040513d601f19601f8201168201806040525081019061106e9190612d43565b6040518463ffffffff1660e01b815260040161108c93929190613020565b6020604051808303816000875af11580156110ab573d6000803e3d6000fd5b505050506040513d601f19601f820116820180604052508101906110cf9190612f87565b50730d500b1d8e8ef31e21c99d1db9a6444d3adf127073ffffffffffffffffffffffffffffffffffffffff166323b872dd3033730d500b1d8e8ef31e21c99d1db9a6444d3adf127073ffffffffffffffffffffffffffffffffffffffff166370a08231306040518263ffffffff1660e01b815260040161114f91906129e9565b602060405180830381865afa15801561116c573d6000803e3d6000fd5b505050506040513d601f19601f820116820180604052508101906111909190612d43565b6040518463ffffffff1660e01b81526004016111ae93929190613020565b6020604051808303816000875af11580156111cd573d6000803e3d6000fd5b505050506040513d601f19601f820116820180604052508101906111f19190612f87565b50737ceb23fd6bc0add59e62ac25578270cff1b9f61973ffffffffffffffffffffffffffffffffffffffff166323b872dd3033737ceb23fd6bc0add59e62ac25578270cff1b9f61973ffffffffffffffffffffffffffffffffffffffff166370a08231306040518263ffffffff1660e01b815260040161127191906129e9565b602060405180830381865afa15801561128e573d6000803e3d6000fd5b505050506040513d601f19601f820116820180604052508101906112b29190612d43565b6040518463ffffffff1660e01b81526004016112d093929190613020565b6020604051808303816000875af11580156112ef573d6000803e3d6000fd5b505050506040513d601f19601f820116820180604052508101906113139190612f87565b50565b600660009054906101000a900473ffffffffffffffffffffffffffffffffffffffff1673ffffffffffffffffffffffffffffffffffffffff163373ffffffffffffffffffffffffffffffffffffffff16146113a6576040517f08c379a000000000000000000000000000000000000000000000000000000000815260040161139d90612f06565b60405180910390fd5b6000803373ffffffffffffffffffffffffffffffffffffffff16476040516113cd90613088565b60006040518083038185875af1925050503d806000811461140a576040519150601f19603f3d011682016040523d82523d6000602084013e61140f565b606091505b509150915081611454576040517f08c379a000000000000000000000000000000000000000000000000000000000815260040161144b906130e9565b60405180910390fd5b5050565b611460612395565b61146933610630565b8111156114a2576040517fb897c66200000000000000000000000000000000000000000000000000000000815260040160405180910390fd5b600081670de0b6b3a76400007f000000000000000000000000000000000000000000000000000000000000000073ffffffffffffffffffffffffffffffffffffffff166318160ddd6040518163ffffffff1660e01b8152600401602060405180830381865afa158015611519573d6000803e3d6000fd5b505050506040513d601f19601f8201168201806040525081019061153d9190612d43565b6115479190612d9f565b6115519190612e44565b9050600081670de0b6b3a764000060016000015461156f9190612d9f565b6115799190612e44565b9050600082670de0b6b3a76400006001600301546115979190612d9f565b6115a19190612e44565b9050600083670de0b6b3a76400006001600201546115bf9190612d9f565b6115c99190612e44565b9050600084670de0b6b3a764000060018001546115e69190612d9f565b6115f09190612e44565b905073b33eaad8d922b1083446dc23f610c2567fb5180f73ffffffffffffffffffffffffffffffffffffffff1663095ea7b37f0000000000000000000000000000000000000000000000000000000000000000866040518363ffffffff1660e01b8152600401611661929190612f26565b6020604051808303816000875af1158015611680573d6000803e3d6000fd5b505050506040513d601f19601f820116820180604052508101906116a49190612f87565b50737ceb23fd6bc0add59e62ac25578270cff1b9f61973ffffffffffffffffffffffffffffffffffffffff1663095ea7b37f0000000000000000000000000000000000000000000000000000000000000000856040518363ffffffff1660e01b8152600401611714929190612f26565b6020604051808303816000875af1158015611733573d6000803e3d6000fd5b505050506040513d601f19601f820116820180604052508101906117579190612f87565b50731bfd67037b42cf73acf2047067bd4f2c47d9bfd673ffffffffffffffffffffffffffffffffffffffff1663095ea7b37f0000000000000000000000000000000000000000000000000000000000000000846040518363ffffffff1660e01b81526004016117c7929190612f26565b6020604051808303816000875af11580156117e6573d6000803e3d6000fd5b505050506040513d601f19601f8201168201806040525081019061180a9190612f87565b50730d500b1d8e8ef31e21c99d1db9a6444d3adf127073ffffffffffffffffffffffffffffffffffffffff1663095ea7b37f0000000000000000000000000000000000000000000000000000000000000000836040518363ffffffff1660e01b815260040161187a929190612f26565b6020604051808303816000875af1158015611899573d6000803e3d6000fd5b505050506040513d601f19601f820116820180604052508101906118bd9190612f87565b5060006118de82730d500b1d8e8ef31e21c99d1db9a6444d3adf12706123e4565b6118fc84731bfd67037b42cf73acf2047067bd4f2c47d9bfd66123e4565b61191a86737ceb23fd6bc0add59e62ac25578270cff1b9f6196123e4565b6119388873b33eaad8d922b1083446dc23f610c2567fb5180f6123e4565b6119429190612de1565b61194c9190612de1565b6119569190612de1565b90507f000000000000000000000000000000000000000000000000000000000000000073ffffffffffffffffffffffffffffffffffffffff16639dc29fac33896040518363ffffffff1660e01b81526004016119b3929190612f26565b600060405180830381600087803b1580156119cd57600080fd5b505af11580156119e1573d6000803e3d6000fd5b5050505084600160000160008282546119fa9190612e75565b9250508190555081600180016000828254611a159190612e75565b925050819055508260016002016000828254611a319190612e75565b925050819055508360016003016000828254611a4d9190612e75565b925050819055508060076000828254611a669190612de1565b92505081905550863373ffffffffffffffffffffffffffffffffffffffff167fe7cfaed309a7efb7c6269c114c148e5a391f7e4207d3f56dba2685d98668e03c60405160405180910390a3505050505050611abf612544565b50565b600080611ace83610630565b9050611ada60006107cf565b81611ae59190612e44565b915050919050565b730d500b1d8e8ef31e21c99d1db9a6444d3adf127081565b731bfd67037b42cf73acf2047067bd4f2c47d9bfd681565b73b33eaad8d922b1083446dc23f610c2567fb5180f81565b610bb881565b6000611b4760006107cf565b82611b529190612e44565b9050919050565b6000611b64826107cf565b82611b6f9190612d9f565b9050919050565b732791bca1f2de4661ed88a30c99a7a9449aa8417481565b737ceb23fd6bc0add59e62ac25578270cff1b9f61981565b6000611bc573ab594600376ec9fd91f8e885dadf0ce036862de0611d38565b611be2730d500b1d8e8ef31e21c99d1db9a6444d3adf1270611f31565b611bec9190612d9f565b611c0973f9680d99d6c9589e2a93a78a04a279e509205945611d38565b611c26737ceb23fd6bc0add59e62ac25578270cff1b9f619611f31565b611c309190612d9f565b611c4d73de31f8bfbd8c84b5360cfacca3539b938dd78ae6611d38565b6402540be400611c70731bfd67037b42cf73acf2047067bd4f2c47d9bfd6611f31565b611c7a9190612d9f565b611c849190612d9f565b611ca173df0fb4e4f928d2dcb76f438575fdd8682386e13c611d38565b611cbe73b33eaad8d922b1083446dc23f610c2567fb5180f611f31565b611cc89190612d9f565b611cd29190612de1565b611cdc9190612de1565b611ce69190612de1565b9050670de0b6b3a7640000606482611cfe9190612e44565b611d089190612e44565b905090565b6000600580549050905090565b60018060000154908060010154908060020154908060030154905084565b6000807f000000000000000000000000000000000000000000000000000000000000000073ffffffffffffffffffffffffffffffffffffffff1663b5e4db1e846040518263ffffffff1660e01b8152600401611d9491906129e9565b602060405180830381865afa158015611db1573d6000803e3d6000fd5b505050506040513d601f19601f82011682018060405250810190611dd5919061313f565b9050611de08161254e565b915050919050565b7f000000000000000000000000000000000000000000000000000000000000000081565b60606005805480602002602001604051908101604052809291908181526020018280548015611e9057602002820191906000526020600020905b8160009054906101000a900473ffffffffffffffffffffffffffffffffffffffff1673ffffffffffffffffffffffffffffffffffffffff1681526020019060010190808311611e46575b5050505050905090565b6000732791bca1f2de4661ed88a30c99a7a9449aa8417473ffffffffffffffffffffffffffffffffffffffff166370a08231836040518263ffffffff1660e01b8152600401611ee991906129e9565b602060405180830381865afa158015611f06573d6000803e3d6000fd5b505050506040513d601f19601f82011682018060405250810190611f2a9190612d43565b9050919050565b60008173ffffffffffffffffffffffffffffffffffffffff166370a08231306040518263ffffffff1660e01b8152600401611f6c91906129e9565b602060405180830381865afa158015611f89573d6000803e3d6000fd5b505050506040513d601f19601f82011682018060405250810190611fad9190612d43565b9050919050565b611fbc612395565b732791bca1f2de4661ed88a30c99a7a9449aa8417473ffffffffffffffffffffffffffffffffffffffff166370a08231336040518263ffffffff1660e01b815260040161200991906129e9565b602060405180830381865afa158015612026573d6000803e3d6000fd5b505050506040513d601f19601f8201168201806040525081019061204a9190612d43565b811115612083576040517fb897c66200000000000000000000000000000000000000000000000000000000815260040160405180910390fd5b6120a3732791bca1f2de4661ed88a30c99a7a9449aa8417433308461259b565b6120e2732791bca1f2de4661ed88a30c99a7a9449aa841747f0000000000000000000000000000000000000000000000000000000000000000836126f3565b60006004826120f19190612e44565b905060006121138273b33eaad8d922b1083446dc23f610c2567fb5180f612848565b9050600061213583730d500b1d8e8ef31e21c99d1db9a6444d3adf1270612848565b9050600061215784731bfd67037b42cf73acf2047067bd4f2c47d9bfd6612848565b9050600061217985737ceb23fd6bc0add59e62ac25578270cff1b9f619612848565b905083600160000160008282546121909190612de1565b92505081905550826001800160008282546121ab9190612de1565b9250508190555081600160020160008282546121c79190612de1565b9250508190555080600160030160008282546121e39190612de1565b9250508190555060006121f8858585856106d3565b9050600860009054906101000a900460ff1661222e576001600860006101000a81548160ff021916908315150217905550612327565b7f000000000000000000000000000000000000000000000000000000000000000073ffffffffffffffffffffffffffffffffffffffff166340c10f193361227484611b59565b6040518363ffffffff1660e01b8152600401612291929190612f26565b600060405180830381600087803b1580156122ab57600080fd5b505af11580156122bf573d6000803e3d6000fd5b505050506005339080600181540180825580915050600190039060005260206000200160009091909190916101000a81548173ffffffffffffffffffffffffffffffffffffffff021916908373ffffffffffffffffffffffffffffffffffffffff1602179055505b80600760008282546123399190612de1565b92505081905550803373ffffffffffffffffffffffffffffffffffffffff167f7eab4c8ee8f56063a7dab35286fc2693f7928b3a402a08bcf5ad53e461eb432760405160405180910390a3505050505050612392612544565b50565b6002600054036123da576040517f08c379a00000000000000000000000000000000000000000000000000000000081526004016123d1906131b8565b60405180910390fd5b6002600081905550565b600080600090506000806040518061010001604052808673ffffffffffffffffffffffffffffffffffffffff168152602001732791bca1f2de4661ed88a30c99a7a9449aa8417473ffffffffffffffffffffffffffffffffffffffff168152602001610bb862ffffff1681526020013373ffffffffffffffffffffffffffffffffffffffff1681526020014281526020018781526020018481526020018373ffffffffffffffffffffffffffffffffffffffff1681525090507f000000000000000000000000000000000000000000000000000000000000000073ffffffffffffffffffffffffffffffffffffffff1663414bf389826040518263ffffffff1660e01b81526004016124f691906132a7565b6020604051808303816000875af1158015612515573d6000803e3d6000fd5b505050506040513d601f19601f820116820180604052508101906125399190612d43565b935050505092915050565b6001600081905550565b600080821215612593576040517f08c379a000000000000000000000000000000000000000000000000000000000815260040161258a9061330f565b60405180910390fd5b819050919050565b6000808573ffffffffffffffffffffffffffffffffffffffff166323b872dd60e01b8686866040516024016125d293929190613020565b604051602081830303815290604052907bffffffffffffffffffffffffffffffffffffffffffffffffffffffff19166020820180517bffffffffffffffffffffffffffffffffffffffffffffffffffffffff838183161783525050505060405161263c9190613395565b6000604051808303816000865af19150503d8060008114612679576040519150601f19603f3d011682016040523d82523d6000602084013e61267e565b606091505b50915091508180156126ac57506000815114806126ab5750808060200190518101906126aa9190612f87565b5b5b6126eb576040517f08c379a00000000000000000000000000000000000000000000000000000000081526004016126e2906133f8565b60405180910390fd5b505050505050565b6000808473ffffffffffffffffffffffffffffffffffffffff1663095ea7b360e01b8585604051602401612728929190612f26565b604051602081830303815290604052907bffffffffffffffffffffffffffffffffffffffffffffffffffffffff19166020820180517bffffffffffffffffffffffffffffffffffffffffffffffffffffffff83818316178352505050506040516127929190613395565b6000604051808303816000865af19150503d80600081146127cf576040519150601f19603f3d011682016040523d82523d6000602084013e6127d4565b606091505b509150915081801561280257506000815114806128015750808060200190518101906128009190612f87565b5b5b612841576040517f08c379a000000000000000000000000000000000000000000000000000000000815260040161283890613464565b60405180910390fd5b5050505050565b60008060009050600080604051806101000160405280732791bca1f2de4661ed88a30c99a7a9449aa8417473ffffffffffffffffffffffffffffffffffffffff1681526020018673ffffffffffffffffffffffffffffffffffffffff168152602001610bb862ffffff1681526020013073ffffffffffffffffffffffffffffffffffffffff1681526020014281526020018781526020018481526020018373ffffffffffffffffffffffffffffffffffffffff1681525090507f000000000000000000000000000000000000000000000000000000000000000073ffffffffffffffffffffffffffffffffffffffff1663414bf389826040518263ffffffff1660e01b815260040161295a91906132a7565b6020604051808303816000875af1158015612979573d6000803e3d6000fd5b505050506040513d601f19601f8201168201806040525081019061299d9190612d43565b935050505092915050565b600073ffffffffffffffffffffffffffffffffffffffff82169050919050565b60006129d3826129a8565b9050919050565b6129e3816129c8565b82525050565b60006020820190506129fe60008301846129da565b92915050565b600080fd5b612a12816129c8565b8114612a1d57600080fd5b50565b600081359050612a2f81612a09565b92915050565b600060208284031215612a4b57612a4a612a04565b5b6000612a5984828501612a20565b91505092915050565b6000819050919050565b612a7581612a62565b82525050565b6000602082019050612a906000830184612a6c565b92915050565b612a9f81612a62565b8114612aaa57600080fd5b50565b600081359050612abc81612a96565b92915050565b60008060008060808587031215612adc57612adb612a04565b5b6000612aea87828801612aad565b9450506020612afb87828801612aad565b9350506040612b0c87828801612aad565b9250506060612b1d87828801612aad565b91505092959194509250565b600060208284031215612b3f57612b3e612a04565b5b6000612b4d84828501612aad565b91505092915050565b600062ffffff82169050919050565b612b6e81612b56565b82525050565b6000602082019050612b896000830184612b65565b92915050565b6000608082019050612ba46000830187612a6c565b612bb16020830186612a6c565b612bbe6040830185612a6c565b612bcb6060830184612a6c565b95945050505050565b6000819050919050565b6000612bf9612bf4612bef846129a8565b612bd4565b6129a8565b9050919050565b6000612c0b82612bde565b9050919050565b6000612c1d82612c00565b9050919050565b612c2d81612c12565b82525050565b6000602082019050612c486000830184612c24565b92915050565b600081519050919050565b600082825260208201905092915050565b6000819050602082019050919050565b612c83816129c8565b82525050565b6000612c958383612c7a565b60208301905092915050565b6000602082019050919050565b6000612cb982612c4e565b612cc38185612c59565b9350612cce83612c6a565b8060005b83811015612cff578151612ce68882612c89565b9750612cf183612ca1565b925050600181019050612cd2565b5085935050505092915050565b60006020820190508181036000830152612d268184612cae565b905092915050565b600081519050612d3d81612a96565b92915050565b600060208284031215612d5957612d58612a04565b5b6000612d6784828501612d2e565b91505092915050565b7f4e487b7100000000000000000000000000000000000000000000000000000000600052601160045260246000fd5b6000612daa82612a62565b9150612db583612a62565b9250828202612dc381612a62565b91508282048414831517612dda57612dd9612d70565b5b5092915050565b6000612dec82612a62565b9150612df783612a62565b9250828201905080821115612e0f57612e0e612d70565b5b92915050565b7f4e487b7100000000000000000000000000000000000000000000000000000000600052601260045260246000fd5b6000612e4f82612a62565b9150612e5a83612a62565b925082612e6a57612e69612e15565b5b828204905092915050565b6000612e8082612a62565b9150612e8b83612a62565b9250828203905081811115612ea357612ea2612d70565b5b92915050565b600082825260208201905092915050565b7f4e6f74204f776e65720000000000000000000000000000000000000000000000600082015250565b6000612ef0600983612ea9565b9150612efb82612eba565b602082019050919050565b60006020820190508181036000830152612f1f81612ee3565b9050919050565b6000604082019050612f3b60008301856129da565b612f486020830184612a6c565b9392505050565b60008115159050919050565b612f6481612f4f565b8114612f6f57600080fd5b50565b600081519050612f8181612f5b565b92915050565b600060208284031215612f9d57612f9c612a04565b5b6000612fab84828501612f72565b91505092915050565b7f617070726f7665206661696c65642e0000000000000000000000000000000000600082015250565b6000612fea600f83612ea9565b9150612ff582612fb4565b602082019050919050565b6000602082019050818103600083015261301981612fdd565b9050919050565b600060608201905061303560008301866129da565b61304260208301856129da565b61304f6040830184612a6c565b949350505050565b600081905092915050565b50565b6000613072600083613057565b915061307d82613062565b600082019050919050565b600061309382613065565b9150819050919050565b7f4661696c656420746f2073656e64204574686572000000000000000000000000600082015250565b60006130d3601483612ea9565b91506130de8261309d565b602082019050919050565b60006020820190508181036000830152613102816130c6565b9050919050565b6000819050919050565b61311c81613109565b811461312757600080fd5b50565b60008151905061313981613113565b92915050565b60006020828403121561315557613154612a04565b5b60006131638482850161312a565b91505092915050565b7f5265656e7472616e637947756172643a207265656e7472616e742063616c6c00600082015250565b60006131a2601f83612ea9565b91506131ad8261316c565b602082019050919050565b600060208201905081810360008301526131d181613195565b9050919050565b6131e181612b56565b82525050565b6131f081612a62565b82525050565b6131ff816129a8565b82525050565b6101008201600082015161321c6000850182612c7a565b50602082015161322f6020850182612c7a565b50604082015161324260408501826131d8565b5060608201516132556060850182612c7a565b50608082015161326860808501826131e7565b5060a082015161327b60a08501826131e7565b5060c082015161328e60c08501826131e7565b5060e08201516132a160e08501826131f6565b50505050565b6000610100820190506132bd6000830184613205565b92915050565b7f53616665436173743a2076616c7565206d75737420626520706f736974697665600082015250565b60006132f9602083612ea9565b9150613304826132c3565b602082019050919050565b60006020820190508181036000830152613328816132ec565b9050919050565b600081519050919050565b60005b8381101561335857808201518184015260208101905061333d565b60008484015250505050565b600061336f8261332f565b6133798185613057565b935061338981856020860161333a565b80840191505092915050565b60006133a18284613364565b915081905092915050565b7f5354460000000000000000000000000000000000000000000000000000000000600082015250565b60006133e2600383612ea9565b91506133ed826133ac565b602082019050919050565b60006020820190508181036000830152613411816133d5565b9050919050565b7f5341000000000000000000000000000000000000000000000000000000000000600082015250565b600061344e600283612ea9565b915061345982613418565b602082019050919050565b6000602082019050818103600083015261347d81613441565b905091905056fea2646970667358221220d99851d0f6fac6cfbedde7a70a3712d4e7d4edb81a7801014b8da7c40c2efda064736f6c6343000811003360806040523480156200001157600080fd5b506040518060400160405280600a81526020017f4c61746120546f6b656e000000000000000000000000000000000000000000008152506040518060400160405280600481526020017f4c4154410000000000000000000000000000000000000000000000000000000081525081600390816200008f919062000412565b508060049081620000a1919062000412565b505050620000c4620000b8620000ca60201b60201c565b620000d260201b60201c565b620004f9565b600033905090565b6000600560009054906101000a900473ffffffffffffffffffffffffffffffffffffffff16905081600560006101000a81548173ffffffffffffffffffffffffffffffffffffffff021916908373ffffffffffffffffffffffffffffffffffffffff1602179055508173ffffffffffffffffffffffffffffffffffffffff168173ffffffffffffffffffffffffffffffffffffffff167f8be0079c531659141344cd1fd0a4f28419497f9722a3daafe3b4186f6b6457e060405160405180910390a35050565b600081519050919050565b7f4e487b7100000000000000000000000000000000000000000000000000000000600052604160045260246000fd5b7f4e487b7100000000000000000000000000000000000000000000000000000000600052602260045260246000fd5b600060028204905060018216806200021a57607f821691505b60208210810362000230576200022f620001d2565b5b50919050565b60008190508160005260206000209050919050565b60006020601f8301049050919050565b600082821b905092915050565b6000600883026200029a7fffffffffffffffffffffffffffffffffffffffffffffffffffffffffffffffff826200025b565b620002a686836200025b565b95508019841693508086168417925050509392505050565b6000819050919050565b6000819050919050565b6000620002f3620002ed620002e784620002be565b620002c8565b620002be565b9050919050565b6000819050919050565b6200030f83620002d2565b620003276200031e82620002fa565b84845462000268565b825550505050565b600090565b6200033e6200032f565b6200034b81848462000304565b505050565b5b8181101562000373576200036760008262000334565b60018101905062000351565b5050565b601f821115620003c2576200038c8162000236565b62000397846200024b565b81016020851015620003a7578190505b620003bf620003b6856200024b565b83018262000350565b50505b505050565b600082821c905092915050565b6000620003e760001984600802620003c7565b1980831691505092915050565b6000620004028383620003d4565b9150826002028217905092915050565b6200041d8262000198565b67ffffffffffffffff811115620004395762000438620001a3565b5b62000445825462000201565b6200045282828562000377565b600060209050601f8311600181146200048a576000841562000475578287015190505b620004818582620003f4565b865550620004f1565b601f1984166200049a8662000236565b60005b82811015620004c4578489015182556001820191506020850194506020810190506200049d565b86831015620004e45784890151620004e0601f891682620003d4565b8355505b6001600288020188555050505b505050505050565b611b5d80620005096000396000f3fe608060405234801561001057600080fd5b506004361061010b5760003560e01c806370a08231116100a25780639dc29fac116100715780639dc29fac146102aa578063a457c2d7146102c6578063a9059cbb146102f6578063dd62ed3e14610326578063f2fde38b146103565761010b565b806370a0823114610234578063715018a6146102645780638da5cb5b1461026e57806395d89b411461028c5761010b565b806323b872dd116100de57806323b872dd1461019a578063313ce567146101ca57806339509351146101e857806340c10f19146102185761010b565b806306fdde0314610110578063095ea7b31461012e57806316f0115b1461015e57806318160ddd1461017c575b600080fd5b610118610372565b6040516101259190611182565b60405180910390f35b6101486004803603810190610143919061123d565b610404565b6040516101559190611298565b60405180910390f35b610166610427565b60405161017391906112c2565b60405180910390f35b61018461044d565b60405161019191906112ec565b60405180910390f35b6101b460048036038101906101af9190611307565b610457565b6040516101c19190611298565b60405180910390f35b6101d2610486565b6040516101df9190611376565b60405180910390f35b61020260048036038101906101fd919061123d565b61048f565b60405161020f9190611298565b60405180910390f35b610232600480360381019061022d919061123d565b6104c6565b005b61024e60048036038101906102499190611391565b6104dc565b60405161025b91906112ec565b60405180910390f35b61026c610524565b005b610276610538565b60405161028391906112c2565b60405180910390f35b610294610562565b6040516102a19190611182565b60405180910390f35b6102c460048036038101906102bf919061123d565b6105f4565b005b6102e060048036038101906102db919061123d565b61060a565b6040516102ed9190611298565b60405180910390f35b610310600480360381019061030b919061123d565b610681565b60405161031d9190611298565b60405180910390f35b610340600480360381019061033b91906113be565b6106a4565b60405161034d91906112ec565b60405180910390f35b610370600480360381019061036b9190611391565b61072b565b005b6060600380546103819061142d565b80601f01602080910402602001604051908101604052809291908181526020018280546103ad9061142d565b80156103fa5780601f106103cf576101008083540402835291602001916103fa565b820191906000526020600020905b8154815290600101906020018083116103dd57829003601f168201915b5050505050905090565b60008061040f6107ae565b905061041c8185856107b6565b600191505092915050565b600660009054906101000a900473ffffffffffffffffffffffffffffffffffffffff1681565b6000600254905090565b6000806104626107ae565b905061046f85828561097f565b61047a858585610a0b565b60019150509392505050565b60006012905090565b60008061049a6107ae565b90506104bb8185856104ac85896106a4565b6104b6919061148d565b6107b6565b600191505092915050565b6104ce610c81565b6104d88282610cff565b5050565b60008060008373ffffffffffffffffffffffffffffffffffffffff1673ffffffffffffffffffffffffffffffffffffffff168152602001908152602001600020549050919050565b61052c610c81565b6105366000610e55565b565b6000600560009054906101000a900473ffffffffffffffffffffffffffffffffffffffff16905090565b6060600480546105719061142d565b80601f016020809104026020016040519081016040528092919081815260200182805461059d9061142d565b80156105ea5780601f106105bf576101008083540402835291602001916105ea565b820191906000526020600020905b8154815290600101906020018083116105cd57829003601f168201915b5050505050905090565b6105fc610c81565b6106068282610f1b565b5050565b6000806106156107ae565b9050600061062382866106a4565b905083811015610668576040517f08c379a000000000000000000000000000000000000000000000000000000000815260040161065f90611533565b60405180910390fd5b61067582868684036107b6565b60019250505092915050565b60008061068c6107ae565b9050610699818585610a0b565b600191505092915050565b6000600160008473ffffffffffffffffffffffffffffffffffffffff1673ffffffffffffffffffffffffffffffffffffffff16815260200190815260200160002060008373ffffffffffffffffffffffffffffffffffffffff1673ffffffffffffffffffffffffffffffffffffffff16815260200190815260200160002054905092915050565b610733610c81565b600073ffffffffffffffffffffffffffffffffffffffff168173ffffffffffffffffffffffffffffffffffffffff16036107a2576040517f08c379a0000000000000000000000000000000000000000000000000000000008152600401610799906115c5565b60405180910390fd5b6107ab81610e55565b50565b600033905090565b600073ffffffffffffffffffffffffffffffffffffffff168373ffffffffffffffffffffffffffffffffffffffff1603610825576040517f08c379a000000000000000000000000000000000000000000000000000000000815260040161081c90611657565b60405180910390fd5b600073ffffffffffffffffffffffffffffffffffffffff168273ffffffffffffffffffffffffffffffffffffffff1603610894576040517f08c379a000000000000000000000000000000000000000000000000000000000815260040161088b906116e9565b60405180910390fd5b80600160008573ffffffffffffffffffffffffffffffffffffffff1673ffffffffffffffffffffffffffffffffffffffff16815260200190815260200160002060008473ffffffffffffffffffffffffffffffffffffffff1673ffffffffffffffffffffffffffffffffffffffff168152602001908152602001600020819055508173ffffffffffffffffffffffffffffffffffffffff168373ffffffffffffffffffffffffffffffffffffffff167f8c5be1e5ebec7d5bd14f71427d1e84f3dd0314c0f7b2291e5b200ac8c7c3b9258360405161097291906112ec565b60405180910390a3505050565b600061098b84846106a4565b90507fffffffffffffffffffffffffffffffffffffffffffffffffffffffffffffffff8114610a0557818110156109f7576040517f08c379a00000000000000000000000000000000000000000000000000000000081526004016109ee90611755565b60405180910390fd5b610a0484848484036107b6565b5b50505050565b600073ffffffffffffffffffffffffffffffffffffffff168373ffffffffffffffffffffffffffffffffffffffff1603610a7a576040517f08c379a0000000000000000000000000000000000000000000000000000000008152600401610a71906117e7565b60405180910390fd5b600073ffffffffffffffffffffffffffffffffffffffff168273ffffffffffffffffffffffffffffffffffffffff1603610ae9576040517f08c379a0000000000000000000000000000000000000000000000000000000008152600401610ae090611879565b60405180910390fd5b610af48383836110e8565b60008060008573ffffffffffffffffffffffffffffffffffffffff1673ffffffffffffffffffffffffffffffffffffffff16815260200190815260200160002054905081811015610b7a576040517f08c379a0000000000000000000000000000000000000000000000000000000008152600401610b719061190b565b60405180910390fd5b8181036000808673ffffffffffffffffffffffffffffffffffffffff1673ffffffffffffffffffffffffffffffffffffffff16815260200190815260200160002081905550816000808573ffffffffffffffffffffffffffffffffffffffff1673ffffffffffffffffffffffffffffffffffffffff168152602001908152602001600020600082825401925050819055508273ffffffffffffffffffffffffffffffffffffffff168473ffffffffffffffffffffffffffffffffffffffff167fddf252ad1be2c89b69c2b068fc378daa952ba7f163c4a11628f55a4df523b3ef84604051610c6891906112ec565b60405180910390a3610c7b8484846110ed565b50505050565b610c896107ae565b73ffffffffffffffffffffffffffffffffffffffff16610ca7610538565b73ffffffffffffffffffffffffffffffffffffffff1614610cfd576040517f08c379a0000000000000000000000000000000000000000000000000000000008152600401610cf490611977565b60405180910390fd5b565b600073ffffffffffffffffffffffffffffffffffffffff168273ffffffffffffffffffffffffffffffffffffffff1603610d6e576040517f08c379a0000000000000000000000000000000000000000000000000000000008152600401610d65906119e3565b60405180910390fd5b610d7a600083836110e8565b8060026000828254610d8c919061148d565b92505081905550806000808473ffffffffffffffffffffffffffffffffffffffff1673ffffffffffffffffffffffffffffffffffffffff168152602001908152602001600020600082825401925050819055508173ffffffffffffffffffffffffffffffffffffffff16600073ffffffffffffffffffffffffffffffffffffffff167fddf252ad1be2c89b69c2b068fc378daa952ba7f163c4a11628f55a4df523b3ef83604051610e3d91906112ec565b60405180910390a3610e51600083836110ed565b5050565b6000600560009054906101000a900473ffffffffffffffffffffffffffffffffffffffff16905081600560006101000a81548173ffffffffffffffffffffffffffffffffffffffff021916908373ffffffffffffffffffffffffffffffffffffffff1602179055508173ffffffffffffffffffffffffffffffffffffffff168173ffffffffffffffffffffffffffffffffffffffff167f8be0079c531659141344cd1fd0a4f28419497f9722a3daafe3b4186f6b6457e060405160405180910390a35050565b600073ffffffffffffffffffffffffffffffffffffffff168273ffffffffffffffffffffffffffffffffffffffff1603610f8a576040517f08c379a0000000000000000000000000000000000000000000000000000000008152600401610f8190611a75565b60405180910390fd5b610f96826000836110e8565b60008060008473ffffffffffffffffffffffffffffffffffffffff1673ffffffffffffffffffffffffffffffffffffffff1681526020019081526020016000205490508181101561101c576040517f08c379a000000000000000000000000000000000000000000000000000000000815260040161101390611b07565b60405180910390fd5b8181036000808573ffffffffffffffffffffffffffffffffffffffff1673ffffffffffffffffffffffffffffffffffffffff1681526020019081526020016000208190555081600260008282540392505081905550600073ffffffffffffffffffffffffffffffffffffffff168373ffffffffffffffffffffffffffffffffffffffff167fddf252ad1be2c89b69c2b068fc378daa952ba7f163c4a11628f55a4df523b3ef846040516110cf91906112ec565b60405180910390a36110e3836000846110ed565b505050565b505050565b505050565b600081519050919050565b600082825260208201905092915050565b60005b8381101561112c578082015181840152602081019050611111565b60008484015250505050565b6000601f19601f8301169050919050565b6000611154826110f2565b61115e81856110fd565b935061116e81856020860161110e565b61117781611138565b840191505092915050565b6000602082019050818103600083015261119c8184611149565b905092915050565b600080fd5b600073ffffffffffffffffffffffffffffffffffffffff82169050919050565b60006111d4826111a9565b9050919050565b6111e4816111c9565b81146111ef57600080fd5b50565b600081359050611201816111db565b92915050565b6000819050919050565b61121a81611207565b811461122557600080fd5b50565b60008135905061123781611211565b92915050565b60008060408385031215611254576112536111a4565b5b6000611262858286016111f2565b925050602061127385828601611228565b9150509250929050565b60008115159050919050565b6112928161127d565b82525050565b60006020820190506112ad6000830184611289565b92915050565b6112bc816111c9565b82525050565b60006020820190506112d760008301846112b3565b92915050565b6112e681611207565b82525050565b600060208201905061130160008301846112dd565b92915050565b6000806000606084860312156113205761131f6111a4565b5b600061132e868287016111f2565b935050602061133f868287016111f2565b925050604061135086828701611228565b9150509250925092565b600060ff82169050919050565b6113708161135a565b82525050565b600060208201905061138b6000830184611367565b92915050565b6000602082840312156113a7576113a66111a4565b5b60006113b5848285016111f2565b91505092915050565b600080604083850312156113d5576113d46111a4565b5b60006113e3858286016111f2565b92505060206113f4858286016111f2565b9150509250929050565b7f4e487b7100000000000000000000000000000000000000000000000000000000600052602260045260246000fd5b6000600282049050600182168061144557607f821691505b602082108103611458576114576113fe565b5b50919050565b7f4e487b7100000000000000000000000000000000000000000000000000000000600052601160045260246000fd5b600061149882611207565b91506114a383611207565b92508282019050808211156114bb576114ba61145e565b5b92915050565b7f45524332303a2064656372656173656420616c6c6f77616e63652062656c6f7760008201527f207a65726f000000000000000000000000000000000000000000000000000000602082015250565b600061151d6025836110fd565b9150611528826114c1565b604082019050919050565b6000602082019050818103600083015261154c81611510565b9050919050565b7f4f776e61626c653a206e6577206f776e657220697320746865207a65726f206160008201527f6464726573730000000000000000000000000000000000000000000000000000602082015250565b60006115af6026836110fd565b91506115ba82611553565b604082019050919050565b600060208201905081810360008301526115de816115a2565b9050919050565b7f45524332303a20617070726f76652066726f6d20746865207a65726f2061646460008201527f7265737300000000000000000000000000000000000000000000000000000000602082015250565b60006116416024836110fd565b915061164c826115e5565b604082019050919050565b6000602082019050818103600083015261167081611634565b9050919050565b7f45524332303a20617070726f766520746f20746865207a65726f20616464726560008201527f7373000000000000000000000000000000000000000000000000000000000000602082015250565b60006116d36022836110fd565b91506116de82611677565b604082019050919050565b60006020820190508181036000830152611702816116c6565b9050919050565b7f45524332303a20696e73756666696369656e7420616c6c6f77616e6365000000600082015250565b600061173f601d836110fd565b915061174a82611709565b602082019050919050565b6000602082019050818103600083015261176e81611732565b9050919050565b7f45524332303a207472616e736665722066726f6d20746865207a65726f20616460008201527f6472657373000000000000000000000000000000000000000000000000000000602082015250565b60006117d16025836110fd565b91506117dc82611775565b604082019050919050565b60006020820190508181036000830152611800816117c4565b9050919050565b7f45524332303a207472616e7366657220746f20746865207a65726f206164647260008201527f6573730000000000000000000000000000000000000000000000000000000000602082015250565b60006118636023836110fd565b915061186e82611807565b604082019050919050565b6000602082019050818103600083015261189281611856565b9050919050565b7f45524332303a207472616e7366657220616d6f756e742065786365656473206260008201527f616c616e63650000000000000000000000000000000000000000000000000000602082015250565b60006118f56026836110fd565b915061190082611899565b604082019050919050565b60006020820190508181036000830152611924816118e8565b9050919050565b7f4f776e61626c653a2063616c6c6572206973206e6f7420746865206f776e6572600082015250565b60006119616020836110fd565b915061196c8261192b565b602082019050919050565b6000602082019050818103600083015261199081611954565b9050919050565b7f45524332303a206d696e7420746f20746865207a65726f206164647265737300600082015250565b60006119cd601f836110fd565b91506119d882611997565b602082019050919050565b600060208201905081810360008301526119fc816119c0565b9050919050565b7f45524332303a206275726e2066726f6d20746865207a65726f2061646472657360008201527f7300000000000000000000000000000000000000000000000000000000000000602082015250565b6000611a5f6021836110fd565b9150611a6a82611a03565b604082019050919050565b60006020820190508181036000830152611a8e81611a52565b9050919050565b7f45524332303a206275726e20616d6f756e7420657863656564732062616c616e60008201527f6365000000000000000000000000000000000000000000000000000000000000602082015250565b6000611af16022836110fd565b9150611afc82611a95565b604082019050919050565b60006020820190508181036000830152611b2081611ae4565b905091905056fea26469706673582212201265fd3f19533f0fd61f8bf7c57a096e7f169a1f64440ef5e531326c73a1e38764736f6c63430008110033608060405234801561001057600080fd5b5073d4a33860578de61dbabdc8bfdb98fd742fa7028e6000806101000a81548173ffffffffffffffffffffffffffffffffffffffff021916908373ffffffffffffffffffffffffffffffffffffffff16021790555073a39434a63a52e749f02807ae27335515ba4b07f7600160006101000a81548173ffffffffffffffffffffffffffffffffffffffff021916908373ffffffffffffffffffffffffffffffffffffffff1602179055507348731cf7e84dc94c5f84577882c14be11a5b7456600260006101000a81548173ffffffffffffffffffffffffffffffffffffffff021916908373ffffffffffffffffffffffffffffffffffffffff1602179055506106068061011e6000396000f3fe608060405234801561001057600080fd5b50600436106100365760003560e01c80638e15f4731461003b578063b5e4db1e14610059575b600080fd5b610043610089565b60405161005091906103dc565b60405180910390f35b610073600480360381019061006e919061045a565b61027e565b6040516100809190610496565b60405180910390f35b610091610305565b60008060009054906101000a900473ffffffffffffffffffffffffffffffffffffffff1673ffffffffffffffffffffffffffffffffffffffff1663feaf968c6040518163ffffffff1660e01b815260040160a060405180830381865afa1580156100ff573d6000803e3d6000fd5b505050506040513d601f19601f820116820180604052508101906101239190610555565b5050509150506000600160009054906101000a900473ffffffffffffffffffffffffffffffffffffffff1673ffffffffffffffffffffffffffffffffffffffff1663feaf968c6040518163ffffffff1660e01b815260040160a060405180830381865afa158015610198573d6000803e3d6000fd5b505050506040513d601f19601f820116820180604052508101906101bc9190610555565b5050509150506000600260009054906101000a900473ffffffffffffffffffffffffffffffffffffffff1673ffffffffffffffffffffffffffffffffffffffff1663feaf968c6040518163ffffffff1660e01b815260040160a060405180830381865afa158015610231573d6000803e3d6000fd5b505050506040513d601f19601f820116820180604052508101906102559190610555565b505050915050604051806060016040528084815260200183815260200182815250935050505090565b60008082905060008173ffffffffffffffffffffffffffffffffffffffff1663feaf968c6040518163ffffffff1660e01b815260040160a060405180830381865afa1580156102d1573d6000803e3d6000fd5b505050506040513d601f19601f820116820180604052508101906102f59190610555565b5050509150508092505050919050565b6040518060600160405280600390602082028036833780820191505090505090565b600060039050919050565b600081905092915050565b6000819050919050565b6000819050919050565b61035a81610347565b82525050565b600061036c8383610351565b60208301905092915050565b6000602082019050919050565b61038e81610327565b6103988184610332565b92506103a38261033d565b8060005b838110156103d45781516103bb8782610360565b96506103c683610378565b9250506001810190506103a7565b505050505050565b60006060820190506103f16000830184610385565b92915050565b600080fd5b600073ffffffffffffffffffffffffffffffffffffffff82169050919050565b6000610427826103fc565b9050919050565b6104378161041c565b811461044257600080fd5b50565b6000813590506104548161042e565b92915050565b6000602082840312156104705761046f6103f7565b5b600061047e84828501610445565b91505092915050565b61049081610347565b82525050565b60006020820190506104ab6000830184610487565b92915050565b600069ffffffffffffffffffff82169050919050565b6104d0816104b1565b81146104db57600080fd5b50565b6000815190506104ed816104c7565b92915050565b6104fc81610347565b811461050757600080fd5b50565b600081519050610519816104f3565b92915050565b6000819050919050565b6105328161051f565b811461053d57600080fd5b50565b60008151905061054f81610529565b92915050565b600080600080600060a08688031215610571576105706103f7565b5b600061057f888289016104de565b95505060206105908882890161050a565b94505060406105a188828901610540565b93505060606105b288828901610540565b92505060806105c3888289016104de565b915050929550929590935056fea2646970667358221220be494a208ddb5e936c1c37ed20df96503740376b49912289b2544bb2a102e27e64736f6c63430008110033",
  "linkReferences": {},
  "deployedLinkReferences": {}
}