{
  "_format": "hh-sol-artifact-1",
  "contractName": "LataSwap",
  "sourceName": "contracts/LataSwap.sol",
  "abi": [
    {
      "inputs": [
        {
          "internalType": "contract ISwapRouter",
          "name": "_swapRouter",
          "type": "address"
        }
      ],
      "stateMutability": "nonpayable",
      "type": "constructor"
    },
    {
      "inputs": [],
      "name": "LataSwap__NotEnoughBalance",
      "type": "error"
    },
    {
      "anonymous": false,
      "inputs": [
        {
          "indexed": true,
          "internalType": "address",
          "name": "investors",
          "type": "address"
        },
        {
          "indexed": true,
          "internalType": "uint256",
          "name": "amountInUSDC",
          "type": "uint256"
        }
      ],
      "name": "DepositUser",
      "type": "event"
    },
    {
      "anonymous": false,
      "inputs": [
        {
          "indexed": true,
          "internalType": "address",
          "name": "investors",
          "type": "address"
        },
        {
          "indexed": true,
          "internalType": "uint256",
          "name": "amountInLataToken",
          "type": "uint256"
        }
      ],
      "name": "WithdrawUser",
      "type": "event"
    },
    {
      "inputs": [],
      "name": "LINK",
      "outputs": [
        {
          "internalType": "address",
          "name": "",
          "type": "address"
        }
      ],
      "stateMutability": "view",
      "type": "function"
    },
    {
      "inputs": [],
      "name": "UNI",
      "outputs": [
        {
          "internalType": "address",
          "name": "",
          "type": "address"
        }
      ],
      "stateMutability": "view",
      "type": "function"
    },
    {
      "inputs": [],
      "name": "USDC",
      "outputs": [
        {
          "internalType": "address",
          "name": "",
          "type": "address"
        }
      ],
      "stateMutability": "view",
      "type": "function"
    },
    {
      "inputs": [],
      "name": "WBTC",
      "outputs": [
        {
          "internalType": "address",
          "name": "",
          "type": "address"
        }
      ],
      "stateMutability": "view",
      "type": "function"
    },
    {
      "inputs": [],
      "name": "WETH",
      "outputs": [
        {
          "internalType": "address",
          "name": "",
          "type": "address"
        }
      ],
      "stateMutability": "view",
      "type": "function"
    },
    {
      "inputs": [
        {
          "internalType": "address",
          "name": "assetToken",
          "type": "address"
        }
      ],
      "name": "_balanceOfAsset",
      "outputs": [
        {
          "internalType": "uint256",
          "name": "",
          "type": "uint256"
        }
      ],
      "stateMutability": "view",
      "type": "function"
    },
    {
      "inputs": [],
      "name": "_calTotalValueOfPoolinUSDC",
      "outputs": [
        {
          "internalType": "uint256",
          "name": "value",
          "type": "uint256"
        }
      ],
      "stateMutability": "view",
      "type": "function"
    },
    {
      "inputs": [
        {
          "internalType": "uint256",
          "name": "amountInUSDC",
          "type": "uint256"
        }
      ],
      "name": "_calUserTokenMint",
      "outputs": [
        {
          "internalType": "uint256",
          "name": "tokenAmount",
          "type": "uint256"
        }
      ],
      "stateMutability": "view",
      "type": "function"
    },
    {
      "inputs": [
        {
          "internalType": "address",
          "name": "priceFeed",
          "type": "address"
        }
      ],
      "name": "_getCurrentPriceofToken",
      "outputs": [
        {
          "internalType": "uint256",
          "name": "",
          "type": "uint256"
        }
      ],
      "stateMutability": "view",
      "type": "function"
    },
    {
      "inputs": [],
      "name": "_getExchangeRate",
      "outputs": [
        {
          "internalType": "uint256",
          "name": "",
          "type": "uint256"
        }
      ],
      "stateMutability": "view",
      "type": "function"
    },
    {
      "inputs": [
        {
          "internalType": "uint256",
          "name": "lataTokenAmount",
          "type": "uint256"
        }
      ],
      "name": "estimateRedeemAmountInUSDC",
      "outputs": [
        {
          "internalType": "uint256",
          "name": "AmountInUSDC",
          "type": "uint256"
        }
      ],
      "stateMutability": "view",
      "type": "function"
    },
    {
      "inputs": [],
      "name": "feeTier",
      "outputs": [
        {
          "internalType": "uint24",
          "name": "",
          "type": "uint24"
        }
      ],
      "stateMutability": "view",
      "type": "function"
    },
    {
      "inputs": [],
      "name": "getAllInvestors",
      "outputs": [
        {
          "internalType": "address[]",
          "name": "",
          "type": "address[]"
        }
      ],
      "stateMutability": "view",
      "type": "function"
    },
    {
      "inputs": [
        {
          "internalType": "address",
          "name": "user",
          "type": "address"
        }
      ],
      "name": "getUserBalanceOfLataToken",
      "outputs": [
        {
          "internalType": "uint256",
          "name": "userLataBalance",
          "type": "uint256"
        }
      ],
      "stateMutability": "view",
      "type": "function"
    },
    {
      "inputs": [
        {
          "internalType": "address",
          "name": "user",
          "type": "address"
        }
      ],
      "name": "getUserUSDCBalance",
      "outputs": [
        {
          "internalType": "uint256",
          "name": "",
          "type": "uint256"
        }
      ],
      "stateMutability": "view",
      "type": "function"
    },
    {
      "inputs": [],
      "name": "lataSwapBalanceOfTokens",
      "outputs": [
        {
          "internalType": "uint256",
          "name": "UNI",
          "type": "uint256"
        },
        {
          "internalType": "uint256",
          "name": "LINK",
          "type": "uint256"
        },
        {
          "internalType": "uint256",
          "name": "WBTC",
          "type": "uint256"
        },
        {
          "internalType": "uint256",
          "name": "WETH",
          "type": "uint256"
        }
      ],
      "stateMutability": "view",
      "type": "function"
    },
    {
      "inputs": [],
      "name": "lataToken",
      "outputs": [
        {
          "internalType": "contract LataToken",
          "name": "",
          "type": "address"
        }
      ],
      "stateMutability": "view",
      "type": "function"
    },
    {
      "inputs": [],
      "name": "totalUsers",
      "outputs": [
        {
          "internalType": "uint256",
          "name": "length",
          "type": "uint256"
        }
      ],
      "stateMutability": "view",
      "type": "function"
    },
    {
      "inputs": [
        {
          "internalType": "uint256",
          "name": "amountInTotal",
          "type": "uint256"
        }
      ],
      "name": "userDeposit",
      "outputs": [],
      "stateMutability": "nonpayable",
      "type": "function"
    },
    {
      "inputs": [
        {
          "internalType": "address",
          "name": "user",
          "type": "address"
        }
      ],
      "name": "userTotalBalanceInUSDC",
      "outputs": [
        {
          "internalType": "uint256",
          "name": "AmountInUSDC",
          "type": "uint256"
        }
      ],
      "stateMutability": "view",
      "type": "function"
    },
    {
      "inputs": [
        {
          "internalType": "uint256",
          "name": "amountInLataToken",
          "type": "uint256"
        }
      ],
      "name": "userWithdraw",
      "outputs": [],
      "stateMutability": "nonpayable",
      "type": "function"
    }
  ],
  "bytecode": "0x60e06040526000600860006101000a81548160ff0219169083151502179055503480156200002c57600080fd5b5060405162004fd038038062004fd0833981810160405281019062000052919062000269565b60016000819055508073ffffffffffffffffffffffffffffffffffffffff1660808173ffffffffffffffffffffffffffffffffffffffff16815250506040516200009c90620001cf565b604051809103906000f080158015620000b9573d6000803e3d6000fd5b5073ffffffffffffffffffffffffffffffffffffffff1660a08173ffffffffffffffffffffffffffffffffffffffff1681525050604051620000fb90620001dd565b604051809103906000f08015801562000118573d6000803e3d6000fd5b5073ffffffffffffffffffffffffffffffffffffffff1660c08173ffffffffffffffffffffffffffffffffffffffff168152505060a05173ffffffffffffffffffffffffffffffffffffffff166340c10f1933683635c9adc5dea000006040518363ffffffff1660e01b81526004016200019492919062000303565b600060405180830381600087803b158015620001af57600080fd5b505af1158015620001c4573d6000803e3d6000fd5b505050505062000330565b612066806200284683390190565b61072480620048ac83390190565b600080fd5b600073ffffffffffffffffffffffffffffffffffffffff82169050919050565b60006200021d82620001f0565b9050919050565b6000620002318262000210565b9050919050565b620002438162000224565b81146200024f57600080fd5b50565b600081519050620002638162000238565b92915050565b600060208284031215620002825762000281620001eb565b5b6000620002928482850162000252565b91505092915050565b620002a68162000210565b82525050565b6000819050919050565b6000819050919050565b6000819050919050565b6000620002eb620002e5620002df84620002ac565b620002c0565b620002b6565b9050919050565b620002fd81620002ca565b82525050565b60006040820190506200031a60008301856200029b565b620003296020830184620002f2565b9392505050565b60805160a05160c051612499620003ad6000396000610ebe015260008181610433015281816104f30152818161060001528181610bbb01528181610f6b015261127a01526000818161071e0152818161080f01528181610900015281816109f10152818161123e015281816115f80152611a5c01526124996000f3fe608060405234801561001057600080fd5b50600436106101375760003560e01c806389a30271116100b8578063ce24f4251161007c578063ce24f42514610347578063cec7234814610377578063d0a2f2c414610395578063eb47ea66146103b3578063ed3b8787146103e3578063f868e7661461041357610137565b806389a30271146102ae578063ad5c4648146102cc578063b185e62a146102ea578063bff1f9e114610308578063c2d2d4271461032657610137565b80634dede3de116100ff5780634dede3de146101f4578063541bcb761461021257806372f5d98a14610230578063745b94c71461024e57806388767bec1461027e57610137565b80631a0546ca1461013c5780631b6b6d231461016c5780632a2ef5741461018a5780633b9056bf146101a8578063444fcf9d146101c4575b600080fd5b61015660048036038101906101519190611b64565b61042f565b6040516101639190611baa565b60405180910390f35b6101746104d2565b6040516101819190611bd4565b60405180910390f35b6101926104ea565b60405161019f9190611baa565b60405180910390f35b6101c260048036038101906101bd9190611c1b565b6105b1565b005b6101de60048036038101906101d99190611b64565b610cb4565b6040516101eb9190611baa565b60405180910390f35b6101fc610cd3565b6040516102099190611bd4565b60405180910390f35b61021a610ceb565b6040516102279190611bd4565b60405180910390f35b610238610d03565b6040516102459190611c66565b60405180910390f35b61026860048036038101906102639190611c1b565b610d09565b6040516102759190611baa565b60405180910390f35b61029860048036038101906102939190611c1b565b610d25565b6040516102a59190611baa565b60405180910390f35b6102b6610d60565b6040516102c39190611bd4565b60405180910390f35b6102d4610d78565b6040516102e19190611bd4565b60405180910390f35b6102f2610d90565b6040516102ff9190611baa565b60405180910390f35b610310610e8e565b60405161031d9190611baa565b60405180910390f35b61032e610e9b565b60405161033e9493929190611c81565b60405180910390f35b610361600480360381019061035c9190611b64565b610eb9565b60405161036e9190611baa565b60405180910390f35b61037f610f69565b60405161038c9190611d25565b60405180910390f35b61039d610f8d565b6040516103aa9190611dfe565b60405180910390f35b6103cd60048036038101906103c89190611b64565b61101b565b6040516103da9190611baa565b60405180910390f35b6103fd60048036038101906103f89190611b64565b6110b2565b60405161040a9190611baa565b60405180910390f35b61042d60048036038101906104289190611c1b565b611135565b005b60007f000000000000000000000000000000000000000000000000000000000000000073ffffffffffffffffffffffffffffffffffffffff166370a08231836040518263ffffffff1660e01b815260040161048a9190611bd4565b602060405180830381865afa1580156104a7573d6000803e3d6000fd5b505050506040513d601f19601f820116820180604052508101906104cb9190611e35565b9050919050565b73514910771af9ca656af840dff83e8264ecf986ca81565b60006305f5e1007f000000000000000000000000000000000000000000000000000000000000000073ffffffffffffffffffffffffffffffffffffffff166318160ddd6040518163ffffffff1660e01b8152600401602060405180830381865afa15801561055c573d6000803e3d6000fd5b505050506040513d601f19601f820116820180604052508101906105809190611e35565b61058a9190611ec0565b6402540be400610598610d90565b6105a29190611ef1565b6105ac9190611ec0565b905090565b6105b96114ee565b6105c23361042f565b8111156105fb576040517fb897c66200000000000000000000000000000000000000000000000000000000815260040160405180910390fd5b6000817f000000000000000000000000000000000000000000000000000000000000000073ffffffffffffffffffffffffffffffffffffffff166318160ddd6040518163ffffffff1660e01b8152600401602060405180830381865afa158015610669573d6000803e3d6000fd5b505050506040513d601f19601f8201168201806040525081019061068d9190611e35565b6106979190611ec0565b90506000816002600001546106ac9190611ec0565b90506000826002600301546106c19190611ec0565b905060008360028001546106d59190611ec0565b90506000846002600101546106ea9190611ec0565b9050731f9840a85d5af5bf1d1762f925bdaddc4201f98473ffffffffffffffffffffffffffffffffffffffff1663095ea7b37f0000000000000000000000000000000000000000000000000000000000000000866040518363ffffffff1660e01b815260040161075b929190611f33565b6020604051808303816000875af115801561077a573d6000803e3d6000fd5b505050506040513d601f19601f8201168201806040525081019061079e9190611f94565b6107dd576040517f08c379a00000000000000000000000000000000000000000000000000000000081526004016107d49061201e565b60405180910390fd5b73c02aaa39b223fe8d0a0e5c4f27ead9083c756cc273ffffffffffffffffffffffffffffffffffffffff1663095ea7b37f0000000000000000000000000000000000000000000000000000000000000000856040518363ffffffff1660e01b815260040161084c929190611f33565b6020604051808303816000875af115801561086b573d6000803e3d6000fd5b505050506040513d601f19601f8201168201806040525081019061088f9190611f94565b6108ce576040517f08c379a00000000000000000000000000000000000000000000000000000000081526004016108c59061201e565b60405180910390fd5b732260fac5e5542a773aa44fbcfedf7c193bc2c59973ffffffffffffffffffffffffffffffffffffffff1663095ea7b37f0000000000000000000000000000000000000000000000000000000000000000846040518363ffffffff1660e01b815260040161093d929190611f33565b6020604051808303816000875af115801561095c573d6000803e3d6000fd5b505050506040513d601f19601f820116820180604052508101906109809190611f94565b6109bf576040517f08c379a00000000000000000000000000000000000000000000000000000000081526004016109b69061201e565b60405180910390fd5b73514910771af9ca656af840dff83e8264ecf986ca73ffffffffffffffffffffffffffffffffffffffff1663095ea7b37f0000000000000000000000000000000000000000000000000000000000000000836040518363ffffffff1660e01b8152600401610a2e929190611f33565b6020604051808303816000875af1158015610a4d573d6000803e3d6000fd5b505050506040513d601f19601f82011682018060405250810190610a719190611f94565b610ab0576040517f08c379a0000000000000000000000000000000000000000000000000000000008152600401610aa79061201e565b60405180910390fd5b6000610ad08273514910771af9ca656af840dff83e8264ecf986ca61153d565b610aee84732260fac5e5542a773aa44fbcfedf7c193bc2c59961153d565b610b0c8673c02aaa39b223fe8d0a0e5c4f27ead9083c756cc261153d565b610b2a88731f9840a85d5af5bf1d1762f925bdaddc4201f98461153d565b610b34919061203e565b610b3e919061203e565b610b48919061203e565b90508460026000016000828254610b5f9190612072565b925050819055508360026003016000828254610b7b9190612072565b9250508190555082600280016000828254610b969190612072565b925050819055508160026001016000828254610bb29190612072565b925050819055507f000000000000000000000000000000000000000000000000000000000000000073ffffffffffffffffffffffffffffffffffffffff16639dc29fac33896040518363ffffffff1660e01b8152600401610c14929190611f33565b600060405180830381600087803b158015610c2e57600080fd5b505af1158015610c42573d6000803e3d6000fd5b505050508060076000828254610c58919061203e565b92505081905550863373ffffffffffffffffffffffffffffffffffffffff167fe7cfaed309a7efb7c6269c114c148e5a391f7e4207d3f56dba2685d98668e03c60405160405180910390a3505050505050610cb161169d565b50565b600080610cc08361042f565b9050610ccb81610d09565b915050919050565b732260fac5e5542a773aa44fbcfedf7c193bc2c59981565b731f9840a85d5af5bf1d1762f925bdaddc4201f98481565b610bb881565b6000610d136104ea565b82610d1e9190611ef1565b9050919050565b6000610d2f6104ea565b641741520bd3633b9aca0084610d459190611ef1565b610d4f9190611ef1565b610d599190611ec0565b9050919050565b73a0b86991c6218b36c1d19d4a2e9eb0ce3606eb4881565b73c02aaa39b223fe8d0a0e5c4f27ead9083c756cc281565b6000610daf732c1d072e956affc0d435cb7ac38ef18d24d9127c610eb9565b600260010154610dbf9190611ef1565b610ddc735f4ec3df9cbd43714fe2740f5e3616155c5b8419610eb9565b600260030154610dec9190611ef1565b610e0973f4030086522a5beea4988f8ca5b36dbc97bee88c610eb9565b6402540be4006002800154610e1e9190611ef1565b610e289190611ef1565b610e4573553303d460ee0afb37edff9be42922d8ff63220e610eb9565b600260000154610e559190611ef1565b610e5f919061203e565b610e69919061203e565b610e73919061203e565b9050670de0b6b3a764000081610e899190611ec0565b905090565b6000600180549050905090565b60028060000154908060010154908060020154908060030154905084565b6000807f000000000000000000000000000000000000000000000000000000000000000073ffffffffffffffffffffffffffffffffffffffff1663b5e4db1e846040518263ffffffff1660e01b8152600401610f159190611bd4565b602060405180830381865afa158015610f32573d6000803e3d6000fd5b505050506040513d601f19601f82011682018060405250810190610f5691906120dc565b9050610f61816116a7565b915050919050565b7f000000000000000000000000000000000000000000000000000000000000000081565b6060600180548060200260200160405190810160405280929190818152602001828054801561101157602002820191906000526020600020905b8160009054906101000a900473ffffffffffffffffffffffffffffffffffffffff1673ffffffffffffffffffffffffffffffffffffffff1681526020019060010190808311610fc7575b5050505050905090565b600073a0b86991c6218b36c1d19d4a2e9eb0ce3606eb4873ffffffffffffffffffffffffffffffffffffffff166370a08231836040518263ffffffff1660e01b815260040161106a9190611bd4565b602060405180830381865afa158015611087573d6000803e3d6000fd5b505050506040513d601f19601f820116820180604052508101906110ab9190611e35565b9050919050565b60008173ffffffffffffffffffffffffffffffffffffffff166370a08231306040518263ffffffff1660e01b81526004016110ed9190611bd4565b602060405180830381865afa15801561110a573d6000803e3d6000fd5b505050506040513d601f19601f8201168201806040525081019061112e9190611e35565b9050919050565b61113d6114ee565b73a0b86991c6218b36c1d19d4a2e9eb0ce3606eb4873ffffffffffffffffffffffffffffffffffffffff166370a08231336040518263ffffffff1660e01b815260040161118a9190611bd4565b602060405180830381865afa1580156111a7573d6000803e3d6000fd5b505050506040513d601f19601f820116820180604052508101906111cb9190611e35565b811115611204576040517fb897c66200000000000000000000000000000000000000000000000000000000815260040160405180910390fd5b61122473a0b86991c6218b36c1d19d4a2e9eb0ce3606eb483330846116f4565b61126373a0b86991c6218b36c1d19d4a2e9eb0ce3606eb487f00000000000000000000000000000000000000000000000000000000000000008361184c565b600860009054906101000a900460ff1615611375577f000000000000000000000000000000000000000000000000000000000000000073ffffffffffffffffffffffffffffffffffffffff166340c10f19336112be84610d25565b6040518363ffffffff1660e01b81526004016112db929190611f33565b600060405180830381600087803b1580156112f557600080fd5b505af1158015611309573d6000803e3d6000fd5b505050506001339080600181540180825580915050600190039060005260206000200160009091909190916101000a81548173ffffffffffffffffffffffffffffffffffffffff021916908373ffffffffffffffffffffffffffffffffffffffff160217905550611391565b6001600860006101000a81548160ff0219169083151502179055505b60006004826113a09190611ec0565b90506113c081731f9840a85d5af5bf1d1762f925bdaddc4201f9846119a1565b600260000160008282546113d4919061203e565b925050819055506113f98173514910771af9ca656af840dff83e8264ecf986ca6119a1565b6002600101600082825461140d919061203e565b9250508190555061143281732260fac5e5542a773aa44fbcfedf7c193bc2c5996119a1565b600280016000828254611445919061203e565b9250508190555061146a8173c02aaa39b223fe8d0a0e5c4f27ead9083c756cc26119a1565b6002600301600082825461147e919061203e565b925050819055508160076000828254611497919061203e565b92505081905550813373ffffffffffffffffffffffffffffffffffffffff167f7eab4c8ee8f56063a7dab35286fc2693f7928b3a402a08bcf5ad53e461eb432760405160405180910390a3506114eb61169d565b50565b600260005403611533576040517f08c379a000000000000000000000000000000000000000000000000000000000815260040161152a90612155565b60405180910390fd5b6002600081905550565b600080600090506000806040518061010001604052808673ffffffffffffffffffffffffffffffffffffffff16815260200173a0b86991c6218b36c1d19d4a2e9eb0ce3606eb4873ffffffffffffffffffffffffffffffffffffffff168152602001610bb862ffffff1681526020013373ffffffffffffffffffffffffffffffffffffffff1681526020014281526020018781526020018481526020018373ffffffffffffffffffffffffffffffffffffffff1681525090507f000000000000000000000000000000000000000000000000000000000000000073ffffffffffffffffffffffffffffffffffffffff1663414bf389826040518263ffffffff1660e01b815260040161164f9190612244565b6020604051808303816000875af115801561166e573d6000803e3d6000fd5b505050506040513d601f19601f820116820180604052508101906116929190611e35565b935050505092915050565b6001600081905550565b6000808212156116ec576040517f08c379a00000000000000000000000000000000000000000000000000000000081526004016116e3906122ac565b60405180910390fd5b819050919050565b6000808573ffffffffffffffffffffffffffffffffffffffff166323b872dd60e01b86868660405160240161172b939291906122cc565b604051602081830303815290604052907bffffffffffffffffffffffffffffffffffffffffffffffffffffffff19166020820180517bffffffffffffffffffffffffffffffffffffffffffffffffffffffff83818316178352505050506040516117959190612374565b6000604051808303816000865af19150503d80600081146117d2576040519150601f19603f3d011682016040523d82523d6000602084013e6117d7565b606091505b509150915081801561180557506000815114806118045750808060200190518101906118039190611f94565b5b5b611844576040517f08c379a000000000000000000000000000000000000000000000000000000000815260040161183b906123d7565b60405180910390fd5b505050505050565b6000808473ffffffffffffffffffffffffffffffffffffffff1663095ea7b360e01b8585604051602401611881929190611f33565b604051602081830303815290604052907bffffffffffffffffffffffffffffffffffffffffffffffffffffffff19166020820180517bffffffffffffffffffffffffffffffffffffffffffffffffffffffff83818316178352505050506040516118eb9190612374565b6000604051808303816000865af19150503d8060008114611928576040519150601f19603f3d011682016040523d82523d6000602084013e61192d565b606091505b509150915081801561195b575060008151148061195a5750808060200190518101906119599190611f94565b5b5b61199a576040517f08c379a000000000000000000000000000000000000000000000000000000000815260040161199190612443565b60405180910390fd5b5050505050565b6000806000905060008060405180610100016040528073a0b86991c6218b36c1d19d4a2e9eb0ce3606eb4873ffffffffffffffffffffffffffffffffffffffff1681526020018673ffffffffffffffffffffffffffffffffffffffff168152602001610bb862ffffff1681526020013073ffffffffffffffffffffffffffffffffffffffff1681526020014281526020018781526020018481526020018373ffffffffffffffffffffffffffffffffffffffff1681525090507f000000000000000000000000000000000000000000000000000000000000000073ffffffffffffffffffffffffffffffffffffffff1663414bf389826040518263ffffffff1660e01b8152600401611ab39190612244565b6020604051808303816000875af1158015611ad2573d6000803e3d6000fd5b505050506040513d601f19601f82011682018060405250810190611af69190611e35565b935050505092915050565b600080fd5b600073ffffffffffffffffffffffffffffffffffffffff82169050919050565b6000611b3182611b06565b9050919050565b611b4181611b26565b8114611b4c57600080fd5b50565b600081359050611b5e81611b38565b92915050565b600060208284031215611b7a57611b79611b01565b5b6000611b8884828501611b4f565b91505092915050565b6000819050919050565b611ba481611b91565b82525050565b6000602082019050611bbf6000830184611b9b565b92915050565b611bce81611b26565b82525050565b6000602082019050611be96000830184611bc5565b92915050565b611bf881611b91565b8114611c0357600080fd5b50565b600081359050611c1581611bef565b92915050565b600060208284031215611c3157611c30611b01565b5b6000611c3f84828501611c06565b91505092915050565b600062ffffff82169050919050565b611c6081611c48565b82525050565b6000602082019050611c7b6000830184611c57565b92915050565b6000608082019050611c966000830187611b9b565b611ca36020830186611b9b565b611cb06040830185611b9b565b611cbd6060830184611b9b565b95945050505050565b6000819050919050565b6000611ceb611ce6611ce184611b06565b611cc6565b611b06565b9050919050565b6000611cfd82611cd0565b9050919050565b6000611d0f82611cf2565b9050919050565b611d1f81611d04565b82525050565b6000602082019050611d3a6000830184611d16565b92915050565b600081519050919050565b600082825260208201905092915050565b6000819050602082019050919050565b611d7581611b26565b82525050565b6000611d878383611d6c565b60208301905092915050565b6000602082019050919050565b6000611dab82611d40565b611db58185611d4b565b9350611dc083611d5c565b8060005b83811015611df1578151611dd88882611d7b565b9750611de383611d93565b925050600181019050611dc4565b5085935050505092915050565b60006020820190508181036000830152611e188184611da0565b905092915050565b600081519050611e2f81611bef565b92915050565b600060208284031215611e4b57611e4a611b01565b5b6000611e5984828501611e20565b91505092915050565b7f4e487b7100000000000000000000000000000000000000000000000000000000600052601260045260246000fd5b7f4e487b7100000000000000000000000000000000000000000000000000000000600052601160045260246000fd5b6000611ecb82611b91565b9150611ed683611b91565b925082611ee657611ee5611e62565b5b828204905092915050565b6000611efc82611b91565b9150611f0783611b91565b9250828202611f1581611b91565b91508282048414831517611f2c57611f2b611e91565b5b5092915050565b6000604082019050611f486000830185611bc5565b611f556020830184611b9b565b9392505050565b60008115159050919050565b611f7181611f5c565b8114611f7c57600080fd5b50565b600081519050611f8e81611f68565b92915050565b600060208284031215611faa57611fa9611b01565b5b6000611fb884828501611f7f565b91505092915050565b600082825260208201905092915050565b7f617070726f7665206661696c65642e0000000000000000000000000000000000600082015250565b6000612008600f83611fc1565b915061201382611fd2565b602082019050919050565b6000602082019050818103600083015261203781611ffb565b9050919050565b600061204982611b91565b915061205483611b91565b925082820190508082111561206c5761206b611e91565b5b92915050565b600061207d82611b91565b915061208883611b91565b92508282039050818111156120a05761209f611e91565b5b92915050565b6000819050919050565b6120b9816120a6565b81146120c457600080fd5b50565b6000815190506120d6816120b0565b92915050565b6000602082840312156120f2576120f1611b01565b5b6000612100848285016120c7565b91505092915050565b7f5265656e7472616e637947756172643a207265656e7472616e742063616c6c00600082015250565b600061213f601f83611fc1565b915061214a82612109565b602082019050919050565b6000602082019050818103600083015261216e81612132565b9050919050565b61217e81611c48565b82525050565b61218d81611b91565b82525050565b61219c81611b06565b82525050565b610100820160008201516121b96000850182611d6c565b5060208201516121cc6020850182611d6c565b5060408201516121df6040850182612175565b5060608201516121f26060850182611d6c565b5060808201516122056080850182612184565b5060a082015161221860a0850182612184565b5060c082015161222b60c0850182612184565b5060e082015161223e60e0850182612193565b50505050565b60006101008201905061225a60008301846121a2565b92915050565b7f53616665436173743a2076616c7565206d75737420626520706f736974697665600082015250565b6000612296602083611fc1565b91506122a182612260565b602082019050919050565b600060208201905081810360008301526122c581612289565b9050919050565b60006060820190506122e16000830186611bc5565b6122ee6020830185611bc5565b6122fb6040830184611b9b565b949350505050565b600081519050919050565b600081905092915050565b60005b8381101561233757808201518184015260208101905061231c565b60008484015250505050565b600061234e82612303565b612358818561230e565b9350612368818560208601612319565b80840191505092915050565b60006123808284612343565b915081905092915050565b7f5354460000000000000000000000000000000000000000000000000000000000600082015250565b60006123c1600383611fc1565b91506123cc8261238b565b602082019050919050565b600060208201905081810360008301526123f0816123b4565b9050919050565b7f5341000000000000000000000000000000000000000000000000000000000000600082015250565b600061242d600283611fc1565b9150612438826123f7565b602082019050919050565b6000602082019050818103600083015261245c81612420565b905091905056fea2646970667358221220da96ceefc3c47cd8b447fbb64dee479ac7c8b396c7a049d3b6406e67c2f9b40864736f6c6343000811003360806040523480156200001157600080fd5b506040518060400160405280600a81526020017f4c61746120546f6b656e000000000000000000000000000000000000000000008152506040518060400160405280600481526020017f4c4154410000000000000000000000000000000000000000000000000000000081525081600390816200008f919062000412565b508060049081620000a1919062000412565b505050620000c4620000b8620000ca60201b60201c565b620000d260201b60201c565b620004f9565b600033905090565b6000600560009054906101000a900473ffffffffffffffffffffffffffffffffffffffff16905081600560006101000a81548173ffffffffffffffffffffffffffffffffffffffff021916908373ffffffffffffffffffffffffffffffffffffffff1602179055508173ffffffffffffffffffffffffffffffffffffffff168173ffffffffffffffffffffffffffffffffffffffff167f8be0079c531659141344cd1fd0a4f28419497f9722a3daafe3b4186f6b6457e060405160405180910390a35050565b600081519050919050565b7f4e487b7100000000000000000000000000000000000000000000000000000000600052604160045260246000fd5b7f4e487b7100000000000000000000000000000000000000000000000000000000600052602260045260246000fd5b600060028204905060018216806200021a57607f821691505b60208210810362000230576200022f620001d2565b5b50919050565b60008190508160005260206000209050919050565b60006020601f8301049050919050565b600082821b905092915050565b6000600883026200029a7fffffffffffffffffffffffffffffffffffffffffffffffffffffffffffffffff826200025b565b620002a686836200025b565b95508019841693508086168417925050509392505050565b6000819050919050565b6000819050919050565b6000620002f3620002ed620002e784620002be565b620002c8565b620002be565b9050919050565b6000819050919050565b6200030f83620002d2565b620003276200031e82620002fa565b84845462000268565b825550505050565b600090565b6200033e6200032f565b6200034b81848462000304565b505050565b5b8181101562000373576200036760008262000334565b60018101905062000351565b5050565b601f821115620003c2576200038c8162000236565b62000397846200024b565b81016020851015620003a7578190505b620003bf620003b6856200024b565b83018262000350565b50505b505050565b600082821c905092915050565b6000620003e760001984600802620003c7565b1980831691505092915050565b6000620004028383620003d4565b9150826002028217905092915050565b6200041d8262000198565b67ffffffffffffffff811115620004395762000438620001a3565b5b62000445825462000201565b6200045282828562000377565b600060209050601f8311600181146200048a576000841562000475578287015190505b620004818582620003f4565b865550620004f1565b601f1984166200049a8662000236565b60005b82811015620004c4578489015182556001820191506020850194506020810190506200049d565b86831015620004e45784890151620004e0601f891682620003d4565b8355505b6001600288020188555050505b505050505050565b611b5d80620005096000396000f3fe608060405234801561001057600080fd5b506004361061010b5760003560e01c806370a08231116100a25780639dc29fac116100715780639dc29fac146102aa578063a457c2d7146102c6578063a9059cbb146102f6578063dd62ed3e14610326578063f2fde38b146103565761010b565b806370a0823114610234578063715018a6146102645780638da5cb5b1461026e57806395d89b411461028c5761010b565b806323b872dd116100de57806323b872dd1461019a578063313ce567146101ca57806339509351146101e857806340c10f19146102185761010b565b806306fdde0314610110578063095ea7b31461012e57806316f0115b1461015e57806318160ddd1461017c575b600080fd5b610118610372565b6040516101259190611182565b60405180910390f35b6101486004803603810190610143919061123d565b610404565b6040516101559190611298565b60405180910390f35b610166610427565b60405161017391906112c2565b60405180910390f35b61018461044d565b60405161019191906112ec565b60405180910390f35b6101b460048036038101906101af9190611307565b610457565b6040516101c19190611298565b60405180910390f35b6101d2610486565b6040516101df9190611376565b60405180910390f35b61020260048036038101906101fd919061123d565b61048f565b60405161020f9190611298565b60405180910390f35b610232600480360381019061022d919061123d565b6104c6565b005b61024e60048036038101906102499190611391565b6104dc565b60405161025b91906112ec565b60405180910390f35b61026c610524565b005b610276610538565b60405161028391906112c2565b60405180910390f35b610294610562565b6040516102a19190611182565b60405180910390f35b6102c460048036038101906102bf919061123d565b6105f4565b005b6102e060048036038101906102db919061123d565b61060a565b6040516102ed9190611298565b60405180910390f35b610310600480360381019061030b919061123d565b610681565b60405161031d9190611298565b60405180910390f35b610340600480360381019061033b91906113be565b6106a4565b60405161034d91906112ec565b60405180910390f35b610370600480360381019061036b9190611391565b61072b565b005b6060600380546103819061142d565b80601f01602080910402602001604051908101604052809291908181526020018280546103ad9061142d565b80156103fa5780601f106103cf576101008083540402835291602001916103fa565b820191906000526020600020905b8154815290600101906020018083116103dd57829003601f168201915b5050505050905090565b60008061040f6107ae565b905061041c8185856107b6565b600191505092915050565b600660009054906101000a900473ffffffffffffffffffffffffffffffffffffffff1681565b6000600254905090565b6000806104626107ae565b905061046f85828561097f565b61047a858585610a0b565b60019150509392505050565b60006012905090565b60008061049a6107ae565b90506104bb8185856104ac85896106a4565b6104b6919061148d565b6107b6565b600191505092915050565b6104ce610c81565b6104d88282610cff565b5050565b60008060008373ffffffffffffffffffffffffffffffffffffffff1673ffffffffffffffffffffffffffffffffffffffff168152602001908152602001600020549050919050565b61052c610c81565b6105366000610e55565b565b6000600560009054906101000a900473ffffffffffffffffffffffffffffffffffffffff16905090565b6060600480546105719061142d565b80601f016020809104026020016040519081016040528092919081815260200182805461059d9061142d565b80156105ea5780601f106105bf576101008083540402835291602001916105ea565b820191906000526020600020905b8154815290600101906020018083116105cd57829003601f168201915b5050505050905090565b6105fc610c81565b6106068282610f1b565b5050565b6000806106156107ae565b9050600061062382866106a4565b905083811015610668576040517f08c379a000000000000000000000000000000000000000000000000000000000815260040161065f90611533565b60405180910390fd5b61067582868684036107b6565b60019250505092915050565b60008061068c6107ae565b9050610699818585610a0b565b600191505092915050565b6000600160008473ffffffffffffffffffffffffffffffffffffffff1673ffffffffffffffffffffffffffffffffffffffff16815260200190815260200160002060008373ffffffffffffffffffffffffffffffffffffffff1673ffffffffffffffffffffffffffffffffffffffff16815260200190815260200160002054905092915050565b610733610c81565b600073ffffffffffffffffffffffffffffffffffffffff168173ffffffffffffffffffffffffffffffffffffffff16036107a2576040517f08c379a0000000000000000000000000000000000000000000000000000000008152600401610799906115c5565b60405180910390fd5b6107ab81610e55565b50565b600033905090565b600073ffffffffffffffffffffffffffffffffffffffff168373ffffffffffffffffffffffffffffffffffffffff1603610825576040517f08c379a000000000000000000000000000000000000000000000000000000000815260040161081c90611657565b60405180910390fd5b600073ffffffffffffffffffffffffffffffffffffffff168273ffffffffffffffffffffffffffffffffffffffff1603610894576040517f08c379a000000000000000000000000000000000000000000000000000000000815260040161088b906116e9565b60405180910390fd5b80600160008573ffffffffffffffffffffffffffffffffffffffff1673ffffffffffffffffffffffffffffffffffffffff16815260200190815260200160002060008473ffffffffffffffffffffffffffffffffffffffff1673ffffffffffffffffffffffffffffffffffffffff168152602001908152602001600020819055508173ffffffffffffffffffffffffffffffffffffffff168373ffffffffffffffffffffffffffffffffffffffff167f8c5be1e5ebec7d5bd14f71427d1e84f3dd0314c0f7b2291e5b200ac8c7c3b9258360405161097291906112ec565b60405180910390a3505050565b600061098b84846106a4565b90507fffffffffffffffffffffffffffffffffffffffffffffffffffffffffffffffff8114610a0557818110156109f7576040517f08c379a00000000000000000000000000000000000000000000000000000000081526004016109ee90611755565b60405180910390fd5b610a0484848484036107b6565b5b50505050565b600073ffffffffffffffffffffffffffffffffffffffff168373ffffffffffffffffffffffffffffffffffffffff1603610a7a576040517f08c379a0000000000000000000000000000000000000000000000000000000008152600401610a71906117e7565b60405180910390fd5b600073ffffffffffffffffffffffffffffffffffffffff168273ffffffffffffffffffffffffffffffffffffffff1603610ae9576040517f08c379a0000000000000000000000000000000000000000000000000000000008152600401610ae090611879565b60405180910390fd5b610af48383836110e8565b60008060008573ffffffffffffffffffffffffffffffffffffffff1673ffffffffffffffffffffffffffffffffffffffff16815260200190815260200160002054905081811015610b7a576040517f08c379a0000000000000000000000000000000000000000000000000000000008152600401610b719061190b565b60405180910390fd5b8181036000808673ffffffffffffffffffffffffffffffffffffffff1673ffffffffffffffffffffffffffffffffffffffff16815260200190815260200160002081905550816000808573ffffffffffffffffffffffffffffffffffffffff1673ffffffffffffffffffffffffffffffffffffffff168152602001908152602001600020600082825401925050819055508273ffffffffffffffffffffffffffffffffffffffff168473ffffffffffffffffffffffffffffffffffffffff167fddf252ad1be2c89b69c2b068fc378daa952ba7f163c4a11628f55a4df523b3ef84604051610c6891906112ec565b60405180910390a3610c7b8484846110ed565b50505050565b610c896107ae565b73ffffffffffffffffffffffffffffffffffffffff16610ca7610538565b73ffffffffffffffffffffffffffffffffffffffff1614610cfd576040517f08c379a0000000000000000000000000000000000000000000000000000000008152600401610cf490611977565b60405180910390fd5b565b600073ffffffffffffffffffffffffffffffffffffffff168273ffffffffffffffffffffffffffffffffffffffff1603610d6e576040517f08c379a0000000000000000000000000000000000000000000000000000000008152600401610d65906119e3565b60405180910390fd5b610d7a600083836110e8565b8060026000828254610d8c919061148d565b92505081905550806000808473ffffffffffffffffffffffffffffffffffffffff1673ffffffffffffffffffffffffffffffffffffffff168152602001908152602001600020600082825401925050819055508173ffffffffffffffffffffffffffffffffffffffff16600073ffffffffffffffffffffffffffffffffffffffff167fddf252ad1be2c89b69c2b068fc378daa952ba7f163c4a11628f55a4df523b3ef83604051610e3d91906112ec565b60405180910390a3610e51600083836110ed565b5050565b6000600560009054906101000a900473ffffffffffffffffffffffffffffffffffffffff16905081600560006101000a81548173ffffffffffffffffffffffffffffffffffffffff021916908373ffffffffffffffffffffffffffffffffffffffff1602179055508173ffffffffffffffffffffffffffffffffffffffff168173ffffffffffffffffffffffffffffffffffffffff167f8be0079c531659141344cd1fd0a4f28419497f9722a3daafe3b4186f6b6457e060405160405180910390a35050565b600073ffffffffffffffffffffffffffffffffffffffff168273ffffffffffffffffffffffffffffffffffffffff1603610f8a576040517f08c379a0000000000000000000000000000000000000000000000000000000008152600401610f8190611a75565b60405180910390fd5b610f96826000836110e8565b60008060008473ffffffffffffffffffffffffffffffffffffffff1673ffffffffffffffffffffffffffffffffffffffff1681526020019081526020016000205490508181101561101c576040517f08c379a000000000000000000000000000000000000000000000000000000000815260040161101390611b07565b60405180910390fd5b8181036000808573ffffffffffffffffffffffffffffffffffffffff1673ffffffffffffffffffffffffffffffffffffffff1681526020019081526020016000208190555081600260008282540392505081905550600073ffffffffffffffffffffffffffffffffffffffff168373ffffffffffffffffffffffffffffffffffffffff167fddf252ad1be2c89b69c2b068fc378daa952ba7f163c4a11628f55a4df523b3ef846040516110cf91906112ec565b60405180910390a36110e3836000846110ed565b505050565b505050565b505050565b600081519050919050565b600082825260208201905092915050565b60005b8381101561112c578082015181840152602081019050611111565b60008484015250505050565b6000601f19601f8301169050919050565b6000611154826110f2565b61115e81856110fd565b935061116e81856020860161110e565b61117781611138565b840191505092915050565b6000602082019050818103600083015261119c8184611149565b905092915050565b600080fd5b600073ffffffffffffffffffffffffffffffffffffffff82169050919050565b60006111d4826111a9565b9050919050565b6111e4816111c9565b81146111ef57600080fd5b50565b600081359050611201816111db565b92915050565b6000819050919050565b61121a81611207565b811461122557600080fd5b50565b60008135905061123781611211565b92915050565b60008060408385031215611254576112536111a4565b5b6000611262858286016111f2565b925050602061127385828601611228565b9150509250929050565b60008115159050919050565b6112928161127d565b82525050565b60006020820190506112ad6000830184611289565b92915050565b6112bc816111c9565b82525050565b60006020820190506112d760008301846112b3565b92915050565b6112e681611207565b82525050565b600060208201905061130160008301846112dd565b92915050565b6000806000606084860312156113205761131f6111a4565b5b600061132e868287016111f2565b935050602061133f868287016111f2565b925050604061135086828701611228565b9150509250925092565b600060ff82169050919050565b6113708161135a565b82525050565b600060208201905061138b6000830184611367565b92915050565b6000602082840312156113a7576113a66111a4565b5b60006113b5848285016111f2565b91505092915050565b600080604083850312156113d5576113d46111a4565b5b60006113e3858286016111f2565b92505060206113f4858286016111f2565b9150509250929050565b7f4e487b7100000000000000000000000000000000000000000000000000000000600052602260045260246000fd5b6000600282049050600182168061144557607f821691505b602082108103611458576114576113fe565b5b50919050565b7f4e487b7100000000000000000000000000000000000000000000000000000000600052601160045260246000fd5b600061149882611207565b91506114a383611207565b92508282019050808211156114bb576114ba61145e565b5b92915050565b7f45524332303a2064656372656173656420616c6c6f77616e63652062656c6f7760008201527f207a65726f000000000000000000000000000000000000000000000000000000602082015250565b600061151d6025836110fd565b9150611528826114c1565b604082019050919050565b6000602082019050818103600083015261154c81611510565b9050919050565b7f4f776e61626c653a206e6577206f776e657220697320746865207a65726f206160008201527f6464726573730000000000000000000000000000000000000000000000000000602082015250565b60006115af6026836110fd565b91506115ba82611553565b604082019050919050565b600060208201905081810360008301526115de816115a2565b9050919050565b7f45524332303a20617070726f76652066726f6d20746865207a65726f2061646460008201527f7265737300000000000000000000000000000000000000000000000000000000602082015250565b60006116416024836110fd565b915061164c826115e5565b604082019050919050565b6000602082019050818103600083015261167081611634565b9050919050565b7f45524332303a20617070726f766520746f20746865207a65726f20616464726560008201527f7373000000000000000000000000000000000000000000000000000000000000602082015250565b60006116d36022836110fd565b91506116de82611677565b604082019050919050565b60006020820190508181036000830152611702816116c6565b9050919050565b7f45524332303a20696e73756666696369656e7420616c6c6f77616e6365000000600082015250565b600061173f601d836110fd565b915061174a82611709565b602082019050919050565b6000602082019050818103600083015261176e81611732565b9050919050565b7f45524332303a207472616e736665722066726f6d20746865207a65726f20616460008201527f6472657373000000000000000000000000000000000000000000000000000000602082015250565b60006117d16025836110fd565b91506117dc82611775565b604082019050919050565b60006020820190508181036000830152611800816117c4565b9050919050565b7f45524332303a207472616e7366657220746f20746865207a65726f206164647260008201527f6573730000000000000000000000000000000000000000000000000000000000602082015250565b60006118636023836110fd565b915061186e82611807565b604082019050919050565b6000602082019050818103600083015261189281611856565b9050919050565b7f45524332303a207472616e7366657220616d6f756e742065786365656473206260008201527f616c616e63650000000000000000000000000000000000000000000000000000602082015250565b60006118f56026836110fd565b915061190082611899565b604082019050919050565b60006020820190508181036000830152611924816118e8565b9050919050565b7f4f776e61626c653a2063616c6c6572206973206e6f7420746865206f776e6572600082015250565b60006119616020836110fd565b915061196c8261192b565b602082019050919050565b6000602082019050818103600083015261199081611954565b9050919050565b7f45524332303a206d696e7420746f20746865207a65726f206164647265737300600082015250565b60006119cd601f836110fd565b91506119d882611997565b602082019050919050565b600060208201905081810360008301526119fc816119c0565b9050919050565b7f45524332303a206275726e2066726f6d20746865207a65726f2061646472657360008201527f7300000000000000000000000000000000000000000000000000000000000000602082015250565b6000611a5f6021836110fd565b9150611a6a82611a03565b604082019050919050565b60006020820190508181036000830152611a8e81611a52565b9050919050565b7f45524332303a206275726e20616d6f756e7420657863656564732062616c616e60008201527f6365000000000000000000000000000000000000000000000000000000000000602082015250565b6000611af16022836110fd565b9150611afc82611a95565b604082019050919050565b60006020820190508181036000830152611b2081611ae4565b905091905056fea26469706673582212201265fd3f19533f0fd61f8bf7c57a096e7f169a1f64440ef5e531326c73a1e38764736f6c63430008110033608060405234801561001057600080fd5b5073d4a33860578de61dbabdc8bfdb98fd742fa7028e6000806101000a81548173ffffffffffffffffffffffffffffffffffffffff021916908373ffffffffffffffffffffffffffffffffffffffff16021790555073a39434a63a52e749f02807ae27335515ba4b07f7600160006101000a81548173ffffffffffffffffffffffffffffffffffffffff021916908373ffffffffffffffffffffffffffffffffffffffff1602179055507348731cf7e84dc94c5f84577882c14be11a5b7456600260006101000a81548173ffffffffffffffffffffffffffffffffffffffff021916908373ffffffffffffffffffffffffffffffffffffffff1602179055506106068061011e6000396000f3fe608060405234801561001057600080fd5b50600436106100365760003560e01c80638e15f4731461003b578063b5e4db1e14610059575b600080fd5b610043610089565b60405161005091906103dc565b60405180910390f35b610073600480360381019061006e919061045a565b61027e565b6040516100809190610496565b60405180910390f35b610091610305565b60008060009054906101000a900473ffffffffffffffffffffffffffffffffffffffff1673ffffffffffffffffffffffffffffffffffffffff1663feaf968c6040518163ffffffff1660e01b815260040160a060405180830381865afa1580156100ff573d6000803e3d6000fd5b505050506040513d601f19601f820116820180604052508101906101239190610555565b5050509150506000600160009054906101000a900473ffffffffffffffffffffffffffffffffffffffff1673ffffffffffffffffffffffffffffffffffffffff1663feaf968c6040518163ffffffff1660e01b815260040160a060405180830381865afa158015610198573d6000803e3d6000fd5b505050506040513d601f19601f820116820180604052508101906101bc9190610555565b5050509150506000600260009054906101000a900473ffffffffffffffffffffffffffffffffffffffff1673ffffffffffffffffffffffffffffffffffffffff1663feaf968c6040518163ffffffff1660e01b815260040160a060405180830381865afa158015610231573d6000803e3d6000fd5b505050506040513d601f19601f820116820180604052508101906102559190610555565b505050915050604051806060016040528084815260200183815260200182815250935050505090565b60008082905060008173ffffffffffffffffffffffffffffffffffffffff1663feaf968c6040518163ffffffff1660e01b815260040160a060405180830381865afa1580156102d1573d6000803e3d6000fd5b505050506040513d601f19601f820116820180604052508101906102f59190610555565b5050509150508092505050919050565b6040518060600160405280600390602082028036833780820191505090505090565b600060039050919050565b600081905092915050565b6000819050919050565b6000819050919050565b61035a81610347565b82525050565b600061036c8383610351565b60208301905092915050565b6000602082019050919050565b61038e81610327565b6103988184610332565b92506103a38261033d565b8060005b838110156103d45781516103bb8782610360565b96506103c683610378565b9250506001810190506103a7565b505050505050565b60006060820190506103f16000830184610385565b92915050565b600080fd5b600073ffffffffffffffffffffffffffffffffffffffff82169050919050565b6000610427826103fc565b9050919050565b6104378161041c565b811461044257600080fd5b50565b6000813590506104548161042e565b92915050565b6000602082840312156104705761046f6103f7565b5b600061047e84828501610445565b91505092915050565b61049081610347565b82525050565b60006020820190506104ab6000830184610487565b92915050565b600069ffffffffffffffffffff82169050919050565b6104d0816104b1565b81146104db57600080fd5b50565b6000815190506104ed816104c7565b92915050565b6104fc81610347565b811461050757600080fd5b50565b600081519050610519816104f3565b92915050565b6000819050919050565b6105328161051f565b811461053d57600080fd5b50565b60008151905061054f81610529565b92915050565b600080600080600060a08688031215610571576105706103f7565b5b600061057f888289016104de565b95505060206105908882890161050a565b94505060406105a188828901610540565b93505060606105b288828901610540565b92505060806105c3888289016104de565b915050929550929590935056fea2646970667358221220be494a208ddb5e936c1c37ed20df96503740376b49912289b2544bb2a102e27e64736f6c63430008110033",
  "linkReferences": {},
  "deployedLinkReferences": {}
}